:020000022000DC
:1070000000000420757302005D7302005F730200CC
:1070100061730200637302006573020000000000E8
:107020000000000000000000000000006773020084
:1070300069730200000000006B7302006D730200B0
:10704000299A02006F730200C59E02006F7302004E
:107050006F7302006F730200459D02006F730200A0
:107060006F7302006F7302006F7302006F73020090
:107070006F7302006F7302006F7302006F73020080
:107080006F730200D98802006F7302006F730200F1
:107090006F7302006F730200D9CC02006F7302009D
:1070A0006F7302006F7302006F7302006F73020050
:1070B0006F7302006F730200000000000000000008
:1070C0006F7302006F7302006F7302006F73020030
:1070D0006F7302006F7302006F7302006F73020020
:1070E0006F7302006F7302006F73020000000000F4
:1070F000000000006F730200000000006F730200C8
:10710000000000000000000000000000000000007F
:10711000000000000000000000000000000000006F
:10712000000000000000000000000000000000005F
:10713000000000000000000000000000000000004F
:10714000000000000000000000000000000000003F
:10715000000000000000000000000000000000002F
:10716000000000000000000000000000000000001F
:10717000000000000000000000000000000000000F
:1071800000000000000000000000000000000000FF
:1071900000000000000000000000000000000000EF
:1071A00000000000000000000000000000000000DF
:1071B00000000000000000000000000000000000CF
:1071C00000000000000000000000000000000000BF
:1071D00000000000000000000000000000000000AF
:1071E000000000000000000000000000000000009F
:1071F000000000000000000000000000000000008F
:10720000354936480A1A02D0072291438D4634493F
:1072100034480A1A06D00722914381F309880222D2
:1072200082F3148830483149314A00F044F831483B
:107230003149324A00F03FF831483249324A00F0D1
:107240003AF832483249334A00F035F83248334987
:10725000334A00F030F833483349344A00F02BF811
:1072600033483449344A00F026F83448344900227F
:1072700000F02CF833483449002200F027F8334856
:107280003349091A082902DB002202604160314AB1
:1072900090471F481F49884205D00268043003B454
:1072A000904703BCF7E700208646EC46002000210B
:1072B000294A9047FEE7884207D0521A05D0037842
:1072C00001300B700131013AF9D17047884202D088
:1072D00002700130FAE770470000042000E003204C
:1072E0000000042000000420CCED02002852002001
:1072F00054580020D0730200D073020010DA02004C
:10730000CCED0200285200202852002070DB020041
:1073100070DB020070DB020070DB020070DB020039
:1073200070DB020070DB020070DB0200CBED0200BC
:10733000F8F30200545800205458002054580020FC
:10734000706B0020706B0020706B0020706B002051
:10735000708B00209D73020095B20200FEE7FEE7ED
:10736000FEE7FEE7FEE7FEE7FEE7FEE7FEE7FEE7F5
:1073700000F002B8FFF7FCBF0F484FF00701884349
:1073800085460E4880470E48016841F4700101604F
:10739000BFF34F8FBFF36F8FFFF732BF09480A4922
:1073A0000A4A884207D0521A05D0037801300B7080
:1073B0000131013AF9D17047000004204D940200D8
:1073C00088ED00E070DB02002852002028520020E7
:1073D0007047000007B5044B0093044A402300F0B7
:1073E00032F803B05DF804FBF17302005558002039
:1073F0002DE9F84388461446B2B10F4B0F4E0325D2
:10740000002743F00109224608EB0701002004F0A1
:1074100097F80744241A48B933782BB14FF47A40CF
:10742000C847013D02D13570BDE8F88301233370B0
:10743000002CE8D1F8E700BF70DB020054580020B0
:10744000704704F0B1B8F0B595B01D461646084631
:107450000C4601F0CFFD1A9B0D93CDE90865002580
:107460002B46082205A920460A958DF82C500C952C
:1074700001F0DDFD079B0293069B03939DF81430FA
:107480008DF8115003F00302012A1DD1BDF814201C
:10749000059DC3F3C203C2F383168DF81030B2000A
:1074A00008230EA9204601F0C2FDC5F3952508ABBF
:1074B0000093324602AB0EA9284600F045FB204659
:1074C00001F09CFD15B0F0BD022AF8D1BDF81650B0
:1074D000C3F3C203C5F389158DF810300827082DB2
:1074E0002E4628BF08263B4632460EA9204601F00C
:1074F0009EFDAD1B08AB02AA31460EA8374400F032
:1075000087FB002DEBD1DAE708B5FFF79AFF0448B7
:10751000042100F083FA034B01225A7108BD00BF19
:1075200060DB020028520020037813F0040216D01A
:1075300003F00303012B03D0022B09D00120704775
:107540000A6800880232C0F3831002440A60F5E73B
:107550000B684288023303EB92130B60EEE7104690
:10756000704700002DE9F04F87B000230446861CC9
:107570000DF107000F4615468DF8073001F03EF873
:10758000404A51683960936803F580735B1A9246EC
:1075900002F21C4702F5836902F21448B3421AD37F
:1075A0000020002D69D004F00F039B0143F0050378
:1075B00063F30F00DAF80430DAB203321E444AF8FB
:1075C00022009DF80700CAF8046001F03BF8012092
:1075D00007B0BDE8F08F0121384601F03EFA484679
:1075E00001F053FA404601F050FADAF80800029030
:1075F000C0B203300AEB800002A9FFF795FF029B9F
:1076000030BBDAB20AEB8202D16803919A1C0133D3
:10761000DBB20AEB83030292D3F80CB001F0030350
:10762000012B22D0022B15D08346404601F030FAC0
:1076300010B1029BCAF808305946384601F00DFADD
:10764000DAF80830DAF8042003F580739B1AA5E70E
:10765000D8B2CEE7BDF80E30C3F3891303334FEA37
:107660001B4B02EB93030293DFE7BDF80C30C3F32F
:1076700083134FEA1B4B1344F5E7A40544F00600BF
:1076800098E700BF68590020064B074810B5002254
:107690001A7001F068FC044610B9044801F026FE97
:1076A000204610BD68590020B4DA0200ACDB0200AD
:1076B00030B50A4C71B10A4A0A49121BD20800239C
:1076C0009A4201D1002030BD31F82350854202D0CA
:1076D0000133F5E7034654F83300F4E71CDA0200FF
:1076E000B4DA020028520020094B013903EBC00034
:1076F000032909D8DFE801F00A02040604207047D4
:107700000079704740797047002070470220704729
:107710001CDA0200034BD3E90130C31A5842584126
:10772000704700BF685900202DE9F04186B0FFF78F
:10773000F1FF0546002840F0E680744CC4F81804B8
:10774000BFF34F8FA3680293DBB2033304EB8300D4
:1077500002A9FFF7E9FE029B18B1D4F81824002A09
:1077600055D0DAB2991C013304EB8202DBB204EB90
:107770008303D268DB68049302F00303022B0392B5
:1077800002914FD1BDF80E306148C3F38917502FD5
:107790003E4628BF502666F38F1306F10801ADF868
:1077A0000E3001F0F8FB0546002800F0978001F04C
:1077B00021FC002303A90822284601F02EFC02998F
:1077C000CB43DBB20133C9B20331B6EB830F4FEACF
:1077D000830804EB810122D908234246A6EB080660
:1077E000284601F01AFCF6B24A4908F1080332466D
:1077F000284601F012FC029B033703EB9707029720
:10780000D4F81834002B41D1D4F8106451E06268E8
:107810009A4299D8A260284606B0BDE8F0810823B4
:107820003246E5E7012B59D1BDF80C303848C3F397
:107830008311062928BF062161F3891302318900CB
:10784000ADF80C3001F0A7FB0546002846D001F04A
:10785000D1FB0023082203A9284601F0DEFB002605
:10786000BDF80C20C2F38312B300964203F1080363
:10787000C6D202994A1CC9B20331029204EB8101BB
:107880000422284601F0C9FB0136E9E7284601F049
:10789000B5FBFFF73FFF80F00100C5B2BBE7F3681F
:1078A0005B7923B1336829461B6830469847F368F3
:1078B0001E68002EF3D1284601F0A0FB0DF1070051
:1078C0008DF8076000F09AFED4F818340BB9029BCB
:1078D000A3609DF8070000F0B5FEDAE7D4F8104485
:1078E00054B90D4B0D480E49C01AC008000440F0B1
:1078F000020000F05DF8CCE7236820469B689847BB
:10790000E3681C68ECE7002585E700BF68590020A4
:10791000B4DA0200745900201CDA020044DA0200D2
:1079200094DB02002DE9F34704460E46924601A976
:10793000012218469946FFF715FE1B4F10B3019D13
:107940004FF00008AA1CC84508EB020123D11748D4
:10795000002101F053F880F31000000440EA1440C5
:10796000E4006B1C04F03804DBB2EDB244F0010417
:1079700007EB8303033544EA881444EA8624D8607D
:1079800047F825403B781BB1FFF7CEFE0028FBD11E
:1079900002B0BDE8F087C9B207EB81015AF8283080
:1079A000CB6008F10108CEE768590020845D002013
:1079B00000231A46FFF7B6BF07B50123019201AABB
:1079C000FFF7B0FF03B05DF804FB07B5CDE9002376
:1079D00002236A46FFF7A6FF03B05DF804FB1FB55C
:1079E000CDE90123069B039301AA0323FFF79AFF26
:1079F00005B05DF804FB7FB5CDE90023089B029339
:107A0000099B03930A9B04930B9B05936A460623E9
:107A1000FFF788FF07B05DF804FB000030B50F49A1
:107A2000D1F8102403460020144634B9DC682071D4
:107A30004AB9C1F81034226030BDE4682579854226
:107A400006D02468F1E7D268116821601360F3E77B
:107A500001300A28E8D14FF0FF30EDE768590020E7
:107A6000084A38B50123D2F8104413701D4604B9F2
:107A700038BDE3685D71236820465B689847E3681A
:107A80001C68F4E76859002007B503460846197AD0
:107A9000052911D05B7A2BB1094A0A49019001F0FE
:107AA0005AF801980849019001F055F8019803B07F
:107AB0005DF804EB01F044B8002AF8D0F2E700BF0B
:107AC000B8DB0200BDDB020094E4020030B5C388DD
:107AD00085B004460D4633B1144A00921449154A44
:107AE000284601F038F8217A05291DD0637A4BB178
:107AF000A088FFF7F9FD104B104953F820202846C5
:107B000001F029F8227A0E4BA08853F82220039224
:107B10000021FFF7CDFD039A0A490346284605B028
:107B2000BDE8304001F017B805B030BDB8DB020049
:107B3000C8DB0200C0DB020044DC0200BDDB020047
:107B400068DC0200E0DB02002DE9F04385B01F464F
:107B50000C9D002395F80C902B7306460C4690461E
:107B600029463846FFF7B2FFB8F1060F09D8DFE81B
:107B700008F00412181F283340003146284600F050
:107B8000EAFF002229463846FFF77EFF85F80C9071
:107B900005B0BDE8F08322683146284600F0DBFFDF
:107BA000EFE7D4E900233146284600F0D4FFE8E7A8
:107BB000A36800933146D4E90023284600F0CBFFA8
:107BC000DFE7E3680193A36800933146D4E900231B
:107BD000284600F0C0FFD4E723690293E3680193CD
:107BE000A36800933146D4E90023284600F0B3FF90
:107BF000C7E76369039323690293E3680193A3686A
:107C000000933146D4E90023284600F0A4FFB8E7EA
:107C100008292DE9F74F80460E4617461C463CD8EA
:107C2000002593F80C901D7319461046FFF74EFF80
:107C3000DFF888A0DFF888B0AE4231D918F8052007
:107C40005946204600F087FF0135082DF4D1194927
:107C5000194DDFF870A0204600F07DFF4FF0000BBB
:107C60005E4522D918F80B207E2A05D810460192CD
:107C700005F09AFA019A00B92E225146204600F0EA
:107C80006AFF0BF1010BBBF1080FE9D1012221467C
:107C90003846FFF7F9FE84F80C9003B0BDE8F08F8A
:107CA0005146204600F057FFCEE72946204600F017
:107CB00052FFE6E7F4DB0200F2DB0200F0DB020039
:107CC000EADB0200F6DB0200C30710B507D4F0239D
:107CD000054A4008145C23401943115410BD0901A2
:107CE000C9B20F23F4E700BF505E002030B5094B46
:107CF0001C78094B196800239C4202DC00221046C4
:107D000030BD11F83350854201EBC302F7D0013387
:107D1000F2E700BF205E0020705E002013B504462D
:107D20000191FFF7E3FF38B143682BB10199204679
:107D300002B0BDE81040184702B010BD034B044824
:107D400019680022490800F05CBA00BF245E0020D8
:107D5000285E002010B5C0B2FFF7C8FF04460078C7
:107D600001F0E2FF63785A1E53425341834208D127
:107D7000044BD3E90023134303D1BDE81040FFF7C0
:107D8000DDBF10BD485E002037B54308354AD35CDF
:107D9000C2074CBF1B0903F00F0304460D46042B1A
:107DA00035D8DFE803F003252C383C0079B30121F6
:107DB000FFF78AFF00230DF107008DF8073000F070
:107DC0001DFC0120A4F12003C4F12001264A20FA61
:107DD00001F100FA03F30B43A040D2E90041204334
:107DE0000B43C2E900039DF8070000F02BFC0EE0F6
:107DF000002918BF02212046FFF766FF07E041B1C6
:107E00000321FFF761FF01212046FFF787FF03B041
:107E100030BD0121EFE70029F9D10421EBE709B1D9
:107E20000321E8E7FFF750FF29462046FFF776FFDA
:107E30000DF107008DF8075000F0E0FB0120A4F1E0
:107E40002003C4F12001084A20FA01F100FA03F3EB
:107E50000B43A040D2E9004124EA000021EA0303D9
:107E6000BFE700BF505E0020485E00202DE9F041D2
:107E7000124E134F00243378A34208DC114BD3E990
:107E80000023134318D0BDE8F041FFF757BF3D680A
:107E900005EBC40815F8340001F046FF98F80130EE
:107EA0005A1E53425341181A4142414115F83400B9
:107EB000FFF76AFF0134DEE7BDE8F081205E0020B5
:107EC000705E0020485E0020092AF7B505460C4682
:107ED00016463CD901F058FED8B11E4B1E481D6015
:107EE0001E4B1F4F1C701F4B002120221E6005F0EF
:107EF000EDF91D4B00200021C3E90001013CE4B273
:107F00000326FF2C0BD1194A1948002100F06EF905
:107F100003E001F0F3FD0028DFD003B0F0BD9DF8D1
:107F2000063015F834008DF8046005EBC40223F028
:107F300007038DF8063001A993788DF805303A468D
:107F400001F02CFE013CE4B20028DAD0E5E707207E
:107F5000E3E700BF705E0020505E0020205E00203E
:107F6000557D0200245E0020485E00206D7E0200E8
:107F700088DC020070B5084D084E00242B789C4226
:107F800001D3002070BD3368012113F8340001F0E3
:107F900081FE0134F2E700BF205E0020705E002009
:107FA0001FB50021039001AA44F20100CDE901119F
:107FB00000F004F805B05DF804FB000010B572B6DF
:107FC000FFF74EFDFFF7B0FB0028FBD1104B114C23
:107FD0001149E41AE408240444F00100FFF7E8FC26
:107FE0000E4B1B68DB0700D500BE0D4944F00200B4
:107FF000FFF7DEFCBFF34F8F0A490B4BCA6802F450
:10800000E0621343CB60BFF34F8F00BFFDE700BFBB
:108010001CDA020044DA02008CDC0200F0ED00E021
:1080200098DC020000ED00E00400FA0549B152B10D
:10803000531E1A4007D1826001608380C2601046DF
:1080400070470E2070470920704710B58468C268D9
:108050008388121B934208D3C26813400268D1542C
:10806000C3680133C360002010BD0420FCE78268B0
:10807000C3689A420AD08268838813400268D35C3E
:108080000B708368013383600020704705207047C0
:10809000D0E90223D1E90201994208BF90422CBFE6
:1080A000012000207047000008B50B4800F0FDFBE0
:1080B0000A4B0B49D3E900231218D1E9000143F11F
:1080C00000038B4208BF824203D212F1807243F157
:1080D00000031046194608BD30520020785E00208B
:1080E000F05E002037B505460C460A4801A900F0AD
:1080F00010FC60B10570446001A9064800F033FC33
:1081000018B1054800F0D6FB002003B030BD0420B4
:10811000FBE700BFDC5E00203052002038B5184B72
:108120001B78044613B90025284638BD0028FAD02C
:10813000037F03F0FF05002BF5D0FFF7B5FFD4E96F
:108140000223994208BF904214D3236903B92377CD
:10815000D4E90530984721690029E4D0237F03F052
:10816000FF05002BDFD0D4E90223521843F10003AE
:10817000C4E902230348214601F0D7F8D4E700BF41
:10818000805E0020B4DC020013B5114B1149186861
:10819000019008231048582200F0A8FB044698B923
:1081A0000E4A0F4801A900F071FA044660B90C4864
:1081B000012100F05DFB01230A4A0948194600F03D
:1081C000BFFA094B01221A70204602B010BD00BF51
:1081D000B0DC0200845E0020DC5E00204D820200E4
:1081E00030520020FFFF7F00805E00203AB103681C
:1081F0005A614A1E514251411961002070470720BF
:10820000704738B5037F04460D4683B98261FFF796
:108210004BFF2369401941F10001C4E9020103B198
:10822000256121460020BDE83840FFF75BBF0020F4
:1082300038BD0023014603770120FFF753BF00003C
:10824000014800F032BB00BF305200202DE9F04F52
:1082500085B0804600F014FB40B15A4AD2E90031A3
:1082600013F1807341F10001C2E900310021404661
:1082700000F015FB38B1544E336823B13068FFF776
:108280004DFF002333600121404600F008FB20B180
:10829000FFF70AFF4D4BC3E900014D484A4F4D4ED1
:1082A000DFF8389103A900F06EFB002845D1DFF814
:1082B0002491454EDFF828A1484601F04CF8336878
:1082C000002875D07BB13368D0E90201D3E90223DD
:1082D000994208BF90422DD233681B7F1BB1316891
:1082E000484601F022F8484601F02FF8D0E902B3E1
:1082F00007460193FFF7D8FE019BBBEB000463EB3D
:108300000105012C75F1000345DBB4F5350F40D3B1
:10831000FFF796FF304A02444FF49603002150467F
:1083200000F02EFA00283ED1336813B9404600F021
:10833000FFF9376005B0BDE8F08F0378012B1DD041
:10834000022B09D14FF0000A304600F0FEFF002852
:1083500034D080F81CA0F7E73BB941680B7F23B904
:1083600001230B77304600F0E0FF03A9184800F026
:1083700035FB03A9164800F006FB96E741683B6809
:10838000994202D100233B60EFE7304600F0E6FF60
:10839000EBE7BA68C0E70021504600F076FA3846AD
:1083A000FFF7BCFE01E00D28F9D00023336083E71E
:1083B000002BBFD1404600F0BFF9BBE7012389F88D
:1083C0000030D2E7785E0020F85E0020F05E0020EA
:1083D000DC5E0020B4DC0200FFFFB400805E002001
:1083E000305200200648074A03780749D35C01222F
:1083F00013B1043002F0ECB90C3001F09BBF00BFA8
:1084000038520020745F0020245F00200648074A8D
:1084100003780749D35C012213B1043002F084B918
:108420000C3001F035BF00BF38520020745F0020CF
:10843000255F002037B50578012D0BD0022D2ED0F9
:1084400065B91E491E48FFF712FE002832D1FFF71A
:10845000DDFF03E0037A1BB9FFF7C4FF03B030BDB3
:108460004368184C19782046FFF7EFFD80B18DF86E
:1084700000500190144B68461B689847A168E36858
:10848000A2885B1A9A42E7D2104B01221A70E5E7E4
:10849000A268E3689A42F1D08DF80000EAE7C36869
:1084A0008DF800500193FFF79DFF074B68461B684E
:1084B0009847D3E703238DF80030F6E7255F0020C7
:1084C000145F0020005F0020FC5E0020105F002091
:1084D000F0B51F46234B89B004461A600D460029AB
:1084E0003DD08A8820480968FFF7A0FD002834D1D4
:1084F000AA89A9681D48FFF799FD00282DD11C4EB7
:108500000FCE6D460FC596E80F0085E80F00636932
:108510000693237C174A18488DF81C70003B18BF3F
:1085200001238DF81430637C002B14BF0E2300232D
:108530008DF81530E3680293A368039323680193D1
:1085400069466368009301F0F5F930B90B4B187078
:108550002368013301D0FFF745FF09B0F0BD0720C4
:10856000FBE700BFFC5E0020005F0020145F0020DE
:10857000C0DC02003584020038520020105F002069
:1085800070B5084D014608482E78FFF770FD044687
:1085900036B100232B70FFF725FF08B1FFF700FD70
:1085A000204670BD105F0020005F002010B501461E
:1085B0000E48FFF74AFD0446A8B90D480D4A037856
:1085C000D35C63B1043002F0F7F860B90A49074898
:1085D000FFF74DFD38B9BDE81040FFF717BF0C306D
:1085E00001F09CFEF1E7204610BD00BF145F0020A3
:1085F00038520020745F0020255F002070B5EFF333
:10860000108672B60C4A946801239CB993600B4B98
:108610000B4DD3F8801029401160C3F88050D3F877
:10862000841051604FF0FF32C3F88420047006B903
:1086300062B670BD0370FAE7285F002000E100E039
:10864000FC06FFBD084B9A6810B55AB150B9EFF35C
:10865000108172B6054A1C6814605C6854609860AA
:1086600001B962B610BD00BF285F002000E100E044
:10867000435882B03BB10023435043580193019BC0
:10868000012002B070471846FBE70000F8B5204B08
:108690004479204D43F824201F4A204B05EBC404A5
:1086A0009B1A2279DB081B0432B143F002001C49FB
:1086B000FFF77EF90820F8BD02680C88C2F808456B
:1086C00090F904608A7804795201002ED2B219DB45
:1086D00014498F1987F800230122760904F01F043A
:1086E00002FA04F441F82640427905EBC201012464
:1086F00045F832000C7143F003000B49FFF758F9BD
:108700000020D8E7094904F00F040A55ECE700BF40
:108710003C5F0020345F00201CDA020054DA0200C3
:10872000E0DC020000E100E002DD020014ED00E008
:10873000036801221A607047036801225A6070477B
:1087400073B501F15005AD000068ADB24FF480344F
:108750008C400026C0F80843C0F84843465101F554
:10876000A8714559019522F07F42019D40F82120D2
:10877000C0F844430BB1C0F8044302B070BD000020
:108780002DE9F74F0D4622F07F4402684FF4803701
:1087900005F150068F408046B60002EB8500C2F816
:1087A0004873B6B2C2F80873D2F8041599464FF070
:1087B000000BD0F84035C0F8401542F806B05B1AFF
:1087C0009259009223F07F43012B009A4FEA850AC9
:1087D0000CD1264B4FF4806043F001039847D8F842
:1087E000003043F806B09B590193019BD8F8001064
:1087F000D1F80465C1F84473A31B23F07F43012B18
:108800001CD11A4B05F5A875013443F0010341F85A
:1088100025404FF480609847D8F80030D3F80435ED
:108820009E4209D1D8F800300020C3F84473C3F841
:10883000047303B0BDE8F08F0D20FAE78A44C9F154
:10884000FF13CAF84045D1F80405221A013A22F074
:108850007F4203F57F439342EED3002AE2D10134F5
:10886000CAF84045D1F804359842DAE720DD020025
:1088700003680222C3F8442309B1C3F804237047F4
:1088800000684FF48271FFF7F3BE4FF4803303FAB0
:1088900001F10368C3F84813C3F808137047503157
:1088A0008900006889B2FFF7E3BE0368D3F80405C6
:1088B0007047000090F90430002B09DB5A090121B0
:1088C00003F01F0301FA03F34032024941F822305A
:1088D000704700BF00E100E0024B034A1B681068CC
:1088E000184700BF3C5F0020345F002010B561B125
:1088F000B2FBF3F403FB1424A4B244B9C0E900149E
:1089000084608281C381204610BD0E20FCE70920CF
:10891000FAE737B550E8013F9DB2C4892544848900
:10892000A54228BF2D1B0489A54202BFBFF32F8F8C
:10893000002207E0C5EA030540E80154002CE9D114
:108940004FF001028DF803200193019B9DF8032055
:108950000B6002F0FF0322B10B880068184403B0DB
:1089600030BD1846FBE70A884B889A4209D150E887
:10897000012FC2EA024240E80123002BF7D1012077
:1089800070470020704737B550E8023F1FFAA3F543
:10899000C488A54202BFBFF32F8F00220DE0C48917
:1089A00025448489A54228BF2D1BC3EA054540E81C
:1089B0000254002CE8D14FF001028DF803200193FE
:1089C000019B9DF803200B6002F0FF0322B14B884E
:1089D0000068184403B030BD1846FBE70A884B888E
:1089E0009A4209D150E8022FC2EA224240E802230B
:1089F000002BF7D1012070470020704710B50346C7
:108A000053E8000F0A4643E8002494F0000FF7D122
:108A100010BD10B5034653E8002F42EA010043E8B9
:108A2000000494F0000FF6D110BD10B5034653E8D2
:108A3000000F00EA010243E8002494F0000FF6D191
:108A400010BD10B5034653E8002F02EA010043E8C9
:108A5000000494F0000FF6D110BD10B5034653E8A2
:108A6000002F02EB010043E8000494F0000FF6D160
:108A700010BD10B5034653E8002FA2EB010043E8F8
:108A8000000494F0000FF6D110BD0121FFF7C1BF23
:108A90000021FFF7CABF10B590B1D0E901230168EA
:108AA0009B1ADBB20A60013BDBB2FF2B026802D1EA
:108AB0000020107110BD11684C1C14600B70F2E79F
:108AC0000E20F7E737B5054600240DF107008DF8B5
:108AD0000740FFF793FD2A686B68116899420ED929
:108AE000481E106011F8014CEB68298A01FB043420
:108AF000AB6811791B1ADBB2994238BF13719DF82C
:108B00000700FFF79FFD204603B030BD37B505468F
:108B100000230DF107000C468DF80730FFF76EFDBE
:108B20002A681368591C1160E968641A298AB4FB21
:108B3000F1F41C709DF80700FFF784FD03B030BD11
:108B4000826810B504462AB14369016800699847F4
:108B50000023A36010BD0EB403B5039921B104AB8B
:108B600001AA019300F06EF802B05DF804EB03B0C7
:108B70007047826830B40468551C8560A154D0E900
:108B800001329A4202D330BCFFF7DABF30BC7047E3
:108B90002DE9F84F9846DDE90A43154682460F460F
:108BA0000A464FF00109AA420FD2C14538BFC1465B
:108BB00013F0010B01D16CB900240126B8F1010FAB
:108BC0001BD908F1FF386E43F8E709F10109B2FB40
:108BD000F5F2E8E79B070ED5B8F1000F0CBF302681
:108BE0002026A145E9D2013C31465046FFF7C1FF9E
:108BF000002CF6D1E0E72026F3E7B7FBF6F39D4221
:108C0000E1D9DFF83C80B7FBF6F3504618F80310C3
:108C100006FB1377FFF7ADFF3346AB42B6FBF5F625
:108C2000F1D2BBF1000F02D00CB1A14501D3BDE8D8
:108C3000F88F20215046013CFFF79BFFF4E700BF6F
:108C400026DD02002DE9F74F054617468846002924
:108C500000F0428118F8011B49B92B7B002B00F072
:108C60003B81284603B0BDE8F04FFFF769BF2529D7
:108C700040F0B780002698F800302D2B424608F1CE
:108C8000010823D0302B24D02B2B25D000242A2BD5
:108C900002F1010123D13B681A1D1B683A601C4494
:108CA0000A4613782E2B26D101324FF0000A1046C7
:108CB00010F8011BA1F1300CBCF1090F1DD80A23DB
:108CC00003FB0A13A3F1300A0246F0E746F001065F
:108CD000D1E746F00206CEE746F00406CBE711F8EE
:108CE000013CA3F130000928DBD80A2202FB04343E
:108CF000303C0A46CBE74FF0000A12F8011B01F0A6
:108D0000FB0068289046F8D0782909D86F290CD83C
:108D1000632962D022D8252963D0582900F08880A1
:108D200098F80030002B95D197E770390829F7D8CB
:108D300001A353F821F000BFB38E0200218D020081
:108D4000218D0200418E0200218D02001F8E020043
:108D5000218D0200218D0200318E0200642901D094
:108D60006929DDD13A68D2F80090111D89EAE972CB
:108D70003960A2EBE9724FF0010B092A35DCD345CB
:108D800038BFD3462CB1B9F1000F01DB720700D513
:108D9000013CB30702D5BAF1000F03D0F00701D4AC
:108DA0004CBB0024B9F1000F2DDAC9F100092D21C7
:108DB0002846FFF7DEFE06F00302022A04D1BAF1CC
:108DC000000F01D11CBB0024CDE9004653460A2206
:108DD00049462846FFF7DCFEA2E73B681A1D1978D2
:108DE0003A602846FFF7C5FE9AE70A230BF1010B0C
:108DF000B2FBF3F2C1E7A345D4D220212846013CBF
:108E0000FFF7B7FECCE77107D5D52B21D0E7A345F7
:108E1000DAD230212846013CFFF7ABFED2E73968B1
:108E2000CDE900460A1D3A6053460A220968D0E798
:108E300039680A1D3A60CDE9004653461022F5E72D
:108E40003B681A1D3A6016F00106D3F8009028D14D
:108E5000B9F1000F03D0484604F08DFA0646B4423B
:108E600000D904BB09F1FF3919F8011F00293FF4AB
:108E700057AF2846FFF77DFEF6E728460136FFF795
:108E800078FE19F806100029F7D1A642BFF448AFC2
:108E9000002C3FF445AF20212846013CFFF769FE36
:108EA000F3E70026EDE720212846013CFFF761FEAD
:108EB000D5E73B681A1D3A60302128461C68FFF749
:108EC00058FE78212846FFF754FE00220823CDE9FA
:108ED0000032214610227CE703B0BDE8F08F00BFCE
:108EE0002DE9F84FB0F806A04579D2F800B09DF80A
:108EF00028900AFB05F5043D88460BEB0301A942C7
:108F000003F1040488BFA5EB030BB4FBFAF6074694
:108F10000AFB1644C2F800B04EB9AAEB04055D4541
:108F200028BF5D46BBF1000F04D1BDE8F88F3F6854
:108F3000013EF1E7043408EB06003C442A46B9F14F
:108F4000000F0DD02146ABEB050B04F096F9DA4586
:108F50002E443F6855464FF0000428BF5D46E1E7C8
:108F600001462046EFE7FFF796BDF8B54679014682
:108F7000721E0546002393422D6803D30024A642A7
:108F800002D8F8BD0133F6E70F682846FFF7BEFDAB
:108F900001343946F3E72DE9F843068ACD1C07462C
:108FA000FFF790FD043E35440446B5FBF6F5F0B1FD
:108FB0004FF48073EDB28380C680013D0760814627
:108FC0004FF00008A84512D23846FFF77BFD064651
:108FD00048B163790133637108F10108C9F80000F1
:108FE00007608146EEE72046FFF7BFFF3446204684
:108FF000BDE8F88301210430FFF72FBD10B5012132
:1090000004460430FFF735FD10F0FF0F04D1204671
:10901000BDE81040FFF7A9BF10BD1FB503920022A5
:10902000009203AAFFF75CFF05B05DF804FB1FB5D3
:1090300003920122009203AAFFF752FF05B05DF8E8
:1090400004FB33DF704741DF70470000064B10B56B
:1090500000241C70054B1C60BFF35F8F044905485A
:1090600000F04DF9204610BD495F00204C5F002004
:1090700040DD0200405F002007B500230DF107002E
:109080008DF80730FFF7BAFAF1EE103A23F09F039C
:10909000E1EE103ABFF35F8F094B4022C3F8842101
:1090A0009DF80700FFF7CEFA03F0FCFD20B1FFF7B3
:1090B000CAFF03B05DF804FB20BF40BF20BFF8E744
:1090C00000E100E070B5264D044601212846FFF777
:1090D00095FCBFF35F8F2E4638B9042C0AD0214B84
:1090E0001A781AB1BFF35F8F286070BD1E4A1470E2
:1090F00001221A701D4C1C4D6368BBB9FEF7B0FC11
:10910000FEF712FB0028FBD1174B1B78023B012B0B
:1091100014D8BFF34F8F1649164BCA6802F4E062A9
:109120001343CB60BFF34F8F00BFFDE71B68287868
:10913000984788B1204600F0ECF8DDE703F0B2FD77
:1091400008B1FFF77EFF4FF080430122C3F80025EE
:10915000BFF34F8F20BFFDE7BFF35F8F3060C4E7E1
:109160004C5F0020495F0020485F0020405F0020E6
:1091700000ED00E00400FA050268136852689342AB
:1091800091BFD01A80680130801888BFC01A70471C
:10919000036881681A685B688B4234BF013300231F
:1091A000D31A584258417047F7B5002304460DF1D1
:1091B00007000D468DF80730FFF720FA2046FFF72D
:1091C000E7FF10B1237C002B3CD12268A6685368CE
:1091D0005168B14234BF01310021516030B1116892
:1091E000A068814234BF013100211160E2686068EB
:1091F000511E072920D8DFE801F004101F141F1F9B
:109200001F182A78C2542046FFF7B6FF23689A68D1
:10921000824200D29860002415E02A8820F81320AA
:10922000F1E72A6840F82320EDE7D5E9006700EB75
:10923000C300C0E90067E6E7294602FB030004F02B
:109240001CF8E0E704249DF80700FFF7FBF920462F
:1092500003B0F0BD036818685B68C31A58425841F0
:10926000704773B5002305460DF107000C461646FE
:109270008DF80730FFF7C2F92846FFF7EBFF00280B
:1092800032D129680B682EB90A68A868824238BFB3
:10929000561C0E60EA686968501E07281ED8DFE871
:1092A00000F0040E1D121D1D1D16CB5C2370002442
:1092B0009DF80700FFF7C6F9204602B070BD31F8EF
:1092C00013302380F3E751F823302360EFE701EBFD
:1092D000C301D1E90023C4E90023E8E703FB02113D
:1092E000204603F0CAFFE2E70524E1E78368002295
:1092F0005A60C3E904229A60DA601A6070470B680A
:109300004A684360934208BF0023016008BF43607E
:109310007047436843B10268916852680B449342B6
:10932000436004BF00234360704770B5446806463D
:109330000D46206818B1B3682946984718B92368C4
:109340002B60256070BD2468F3E74368186808B196
:1093500002681A6070474368186870474368186865
:1093600000B97047884203D102681A600120704733
:1093700003460068F4E7000010B50D49A1F59472AA
:10938000914201D800200FE08C1AE30F03EBE403B5
:109390005B1002EBC30452F83330834205D802D28B
:1093A00004F10802ECE7606810BD2146E8E700BF61
:1093B0004CE2020008B5FFF7DFFF024B002808BFB0
:1093C000184608BD0FE1020010B50446C0B2FFF711
:1093D000EDF8204610BD01F01F024B09012191401C
:1093E00000EB8300FFF715BB01F01F0301229A4039
:1093F0004B0900EB8300D143FFF723BB4B0901F07E
:109400001F0150F82300C84000F001007047000021
:10941000034B1868A0F1080358425841704700BF39
:1094200030010010064B1B68082B06D1054B1B684A
:10943000032B02D8044AD05C70470020704700BF5D
:1094400030010010340100104CE2020008B5FFF7B3
:10945000DFFF40B14FF080430022C3F80C21C3F876
:109460001021C3F83825FFF7D3FF002846D04FF06E
:1094700080525E4BD2F80414C3F82015D2F80814B9
:10948000C3F82415D2F80C14C3F82815D2F8101418
:10949000C3F82C15D2F81414C3F83015D2F81814E8
:1094A000C3F83415D2F81C14C3F84015D2F82014B0
:1094B000C3F84415D2F82414C3F84815D2F8281478
:1094C000C3F84C15D2F82C14C3F85015D2F8301448
:1094D000C3F85415D2F83414C3F86015D2F8381410
:1094E000C3F86415D2F83C14C3F86815D2F84014D8
:1094F000C3F86C15D2F84424C3F87025FFF792FF27
:1095000010B13B4B3B4A1A60FFF78CFF18B13A4B46
:10951000FB22C3F81825FFF785FF48B13749384BC0
:109520000A681B6822F00F0203F00F0313430B605D
:10953000FFF778FF18B1334B4FF400721A60FFF752
:1095400067FF48B14FF08043D3F80024D20744BFEF
:109550006FF00102C3F800242B4AD2F8883043F49C
:109560007003C2F88830BFF34F8FBFF36F8F4FF097
:109570001023D3F80022002A03DBD3F80432002B97
:109580002FDA224B0122C3F80425D3F80024002A45
:10959000FBD04FF010221221C2F80012D3F80024A1
:1095A000002AFBD04FF010231222C3F80422174BDD
:1095B0001A46D3F800140029FBD00021C3F8041583
:1095C000D2F80034002BFBD0BFF34F8F0E49104B65
:1095D000CA6802F4E0621343CB60BFF34F8F00BF51
:1095E000FDE70C4B0C4A1A6008BD00BF00C00040EC
:1095F0008C5600404881030000F00040E40E00401B
:10960000580200104096024000ED00E000E00140EA
:109610000400FA054C5200200090D003074B1B5C5D
:109620001F2B8ABF064A4FF0A04203F01F03D2F857
:109630000405D840C04300F00100704754E2020026
:1096400000030050074B1B5C1F2B86BF064903F02D
:109650001F034FF0A041012202FA03F3C1F80C35B9
:10966000704700BF54E2020000030050074B1B5C30
:109670001F2B86BF064903F01F034FF0A0410122B4
:1096800002FA03F3C1F80835704700BF54E2020044
:109690000003005008B50020FFF7E8FF0120FFF7A6
:1096A000E5FF0220FFF7E2FFBDE808400320FFF7D7
:1096B000DDBF08B50020FFF7C5FF0120FFF7C2FF9F
:1096C0000220FFF7BFFFBDE808400320FFF7BABF45
:1096D0000A4B185C1F288ABF094B4FF0A04300F0CB
:1096E0001F00D3F804250121814021EA02000A402D
:1096F000C3F80805C3F80C25704700BF54E2020008
:1097000000030050074B1B5C1F2B8ABF064A4FF01B
:10971000A04203F01F03D2F81005D840C04300F068
:109720000100704750E20200000300500B2809D0EE
:109730000C2809D0182809D019280CBF03204FF095
:10974000FF307047002070470120704702207047AB
:10975000C20710B504460CD54FF0A0430322C3F84E
:109760003427C3F83827C3F83C27C3F84027FFF74E
:1097700091FFA3070AD54FF0A0430C22C3F82C2772
:10978000C3F83027C3F86027C3F8642710BD000072
:1097900038B5074C051E04F1080318BF1C462368A2
:1097A0002BB11A6822605B6828469847F7E738BDF6
:1097B000585F002020B9054B01225A70FFF7E8BF1F
:1097C000012802D1014A9070F8E77047505F0020ED
:1097D00020B9034B01225A70FFF7DABF704700BF70
:1097E000505F002038B50E4C2378B3B90D48636044
:1097F000A3602361E36000F0E5F8054603F052FA48
:1098000008B900F0EBF801232370074BD3F80034BC
:109810000BB10123A370284638BD8525F5E700BFAD
:10982000505F0020B59702000000014037B50D4C95
:1098300000230DF107008DF80730FEF7DFFEE36827
:10984000013BE360E36833B9074BD3F8005415B923
:1098500000F0D6F8A5709DF80700FEF7F3FE03B000
:1098600030BD00BF505F002000000140012813B54B
:109870000CD0032820D038B9124B0122C3F8802025
:10988000BFF34F8FBFF36F8F02B010BD0E4C00239C
:109890000DF107008DF80730FEF7B0FE23780BB905
:1098A000FFF7A0FFE3689DF807000133E3600123A1
:1098B000A370FEF7C7FEE7E700F090F8FFF7B6FFEA
:1098C000E2E700BF00E100E0505F00201FB5037831
:1098D0008DF800304368019383688DF80830C368C1
:1098E000054A0393054B684653F8213052F821107E
:1098F000984705B05DF804FB645F00206C5F0020B2
:109900001FB503788DF800304368019383688DF8A4
:109910000830C368054A0393054B684653F8213065
:1099200052F82110984705B05DF804FB645F0020F1
:109930006C5F0020F0B5194B90F800C0DFF86CE0C8
:1099400043F82C20164B16460A6943F82C204B7F0F
:109950000EF80C300C4607460FCC89B06D460FC58B
:1099600094E80F0085E80F001EF80C30CDF810C009
:109970004BB1002E0B4A694608BF3246381D00F035
:10998000F5FD09B0F0BD002E074A694608BF324612
:1099900007F10C0000F0AAFBF3E700BF6C5F0020AA
:1099A000645F0020CD98020001990200745F0020DE
:1099B00000F18040002382B0036003680193019BA3
:1099C00002B07047044A137923B9012110609180D5
:1099D0001846704785207047785F0020074B1A684B
:1099E000D20704D4C02283F8002301221A604FF06A
:1099F00080430122C3F81825704700BF00E100E052
:109A00004FF0804208B50223C2F808334FF4827049
:109A1000FFF7CEFF034B01211960D2F81834DB03A6
:109A2000FBD408BD0C000040124B1B6810B573B18D
:109A30004FF48070FFF7BCFF4FF080430122C3F862
:109A400008230D4B587910B95A711B6898470B4B76
:109A50001B6873B14FF48270FFF7AAFF4FF0804389
:109A60000222C3F80823044BBDE810401B68012004
:109A7000184710BD00010040785F0020040100403D
:109A800000F1804000F5C040002382B0036003680D
:109A90000193019B02B0704703681F2B83BF03F043
:109AA0001F03036001484FF0A040704700030050BF
:109AB00007B5019001A8FFF7EFFF019B00EB8300C2
:109AC000D0F8003723F44033C0F80037D0F800371F
:109AD00043EA0141C0F8001703B05DF804FB000041
:109AE000054B4FF0FF32072843F8202084BFC018F1
:109AF00080F85820704700BF805F002038B51E4CAA
:109B000094F86A30ABBB4FF6FF71FF205A09012A67
:109B100014BF4FF0FF320A4603F01F05EA40D20798
:109B200048BFE21803F1010348BF82F83000302B30
:109B3000ECD10021C8B2FFF7D3FF01310C29F9D1D4
:109B4000062200210D4803F0C1FB0D4BC02283F813
:109B5000062340221A604FF4BE70FFF791FF094BB5
:109B60004FF00042C3F80423012384F86A30002038
:109B700038BD0820FCE700BF805F0020E45F0020C4
:109B800000E100E000600040034B93F86A000038F9
:109B900018BF0120704700BF805F0020F7B53B4E23
:109BA0003318054693F93030002B6CDA8B78C3F309
:109BB0004003002B0BBF082400240C200820844203
:109BC00002D1042003B0F0BD56F82470013743D110
:109BD000701946F8242080F8304013B9331983F8FF
:109BE00058508B785A0717D4D80737D501A8019554
:109BF000FFF752FF019B00EB8300D0F8003723F002
:109C00000203C0F800372248EA0805F007070123DD
:109C1000BB40875C3B4383548B780A7813F0020384
:109C200028D0A40004F1804404F5C0442D02D4F8E7
:109C3000103523F44F3323F44073C4F81035120465
:109C4000D4F8103505F47C5502F4403215431D4319
:109C5000C4F810550020B5E70134B0E701A84A78F0
:109C60000195FFF719FF019B03F5E073920040F89F
:109C70002320C8E7083C344494F8605045EA821237
:109C800084F86020E6E708209CE700BF805F0020A2
:109C9000E45F002073B5224C2618054696F9302063
:109CA000072A1ADD224492F858309B09032B0FD162
:109CB000019001A8FFF7F0FE019BD0F81015D940E4
:109CC00001F0010102312846FFF7F2FE02B070BD3B
:109CD000012B0CBF02210321F5E7D3B2072BF5D8E6
:109CE000930003F1804303F5C043D3F8100540F01F
:109CF0000100C3F8100502F14000800080B2FFF7B8
:109D0000BFFE0029E2D096F9303054F82330002B02
:109D1000DCD0012303FA02F2024BC3F80423D5E797
:109D2000805F00200060004007B5019001A8FFF7A8
:109D3000B3FE019BD0F81005D84000F0010003B03D
:109D40005DF804FB2DE9FF470024CDE90244584D9E
:109D50004FF48072012102F1804303F5C04390B2B9
:109D60001B68012B06D1D5F804330B4202D0FFF754
:109D700087FE0C430432B2F5907F4FEA4101EAD1ED
:109D80004C4B1B68012B11D14FF4BE70FFF778FECE
:109D90004FF0A04344F00044D3F820250292C3F8CA
:109DA0002025D3F820280392C3F8202814F0FF0FB1
:109DB0001AD0414F00250126344210D0AB0003F1E8
:109DC000804303F5C043D3F81005D3F8101557F8B6
:109DD000253023B1C1F30141C0F305209847013577
:109DE000082D4FEA4606E7D1002C59DA324D334CA4
:109DF000334E4FF00008012716F9013B5A1C3CD0A6
:109E0000C3F3C20104A801445FFA83F911F8081CE6
:109E100003F03F0203F0070307FA03F319422CD0C3
:109E200001A80192FFF738FE019B03F5E07350F89B
:109E30002330C3F3014ABAF1020F10460CBF0321CD
:109E40000221FFF735FE01A80192FFF725FE019BD5
:109E500007FA03F3C0F82035AB1893F9303055F802
:109E6000233053B14FEA9911032904D0BAF1020FFC
:109E700019D1012901D11046984708F10108B8F11C
:109E8000040FB9D14FF0A043D3F820250292C3F8B4
:109E90002025D4F820350393C4F820351343A7D1E7
:109EA00004B0BDE8F087BAF1030FE6D10229E1E77B
:109EB000006000407C610040805F00200003005093
:109EC000E05F0020014B1B68184700BFEC5F0020DB
:109ED0000E4B984237B50C4602D0002003B030BD7F
:109EE00000230DF107008DF80730FEF787FB084BC4
:109EF0001D7915B901221C601A719DF80700FEF743
:109F0000A1FB002DE9D01120E8E700BF00200040B0
:109F1000EC5F00200023435082B043580193019B23
:109F200002B070470A4610B54FF48E71FFF7F2FF8A
:109F3000136A9168C95C136A01331362C0F81C1577
:109F400010BD024608B500684FF49271FFF7E2FFBA
:109F50004FF484711068FFF7DDFF136801221A6067
:109F600008BD8B690A4610B54FF4847123B9FFF719
:109F7000D1FFD0F8183510BDFFF7CCFF536AD16878
:109F8000D0F81805C854536A01335362F3E7000050
:109F90001FB501238DF80030044BCDE90110D3E942
:109FA00000126846904705B05DF804FBF45F00209E
:109FB00030B54C48D0F8043313F4007F85B0054623
:109FC0004DD0D0F82431002B49D04FF49271FFF7D7
:109FD000A1FF4FF40173C0F80833434B93F82920D5
:109FE0000AB9012242603F4902228DF80020D1F8CF
:109FF0008024C1F8802403929A690292DA6801925F
:10A000000022C3E906226846D3E90012904735488A
:10A01000D0F81C315BB134494A690B6A9A420A464E
:10A020004AD991F82830002B46D1FFF77BFF2D4805
:10A03000D0F844318BB14FF4A271FFF76BFF2A4B7C
:10A0400093F829200AB1012202609A692AB10022FC
:10A05000586AD9689A61FFF79BFF05B030BDD5F803
:10A0600004335B07D3D5D5F80831002BCFD01E4C75
:10A070001C482146FFF775FF636AA2699A4223468E
:10A08000C5D1E269E1684AB12369E3600023606AEF
:10A09000A261E3616362FFF77BFFB8E794F82920D0
:10A0A0000AB901226A600F4A4FF40170C2F808032E
:10A0B0000022586A9A61EEE70A484FF48E71FFF762
:10A0C00029FF5369002BB2D0516902910023916896
:10A0D0008DF80030019153616846D2E9001398472A
:10A0E000A5E700BF00200040F45F00202DE9F84301
:10A0F000614B057991462C2202FB0532064692F807
:10A100002A200C469846002A40F0B1805B4900683E
:10A11000FFF7DEFE0746002840F0AB8021684A1CAE
:10A1200010D01F2987BF564A01F01F030B464FF07E
:10A13000A0420120984003F5E073C2F8080503200F
:10A1400042F823006068431C0DD01F288BBF00F02D
:10A150001F0303464A4A4FF0A04203F5E0734FF055
:10A16000000C42F823C03368A269C3F8242594F890
:10A1700014C0627DBCF1010F4CEA0202C3F86C25E9
:10A18000C3F81405C3F80C152BD1A168481C0DD0D9
:10A190001F298BBF01F01F020A4639484FF0A0402B
:10A1A00002F5E0724FF0000C40F822C0E068421C5B
:10A1B00013D01F2887BF324A00F01F0C84464FF08F
:10A1C000A0424FF0010E0EFA0CFE0CF5E07CC2F836
:10A1D00008E54FF0030E42F82CE0C3F80805C3F879
:10A1E00010152C236B4308EB0302C2F8049022697C
:10A1F00048F80320B9F1000F21D03068247F4FF4D4
:10A200008E71FFF787FE4FF4A2713068FFF782FE70
:10A2100032681C4BC2F80433110B42F3073263015E
:10A22000002ADBB21EDB1848841884F800330123AF
:10A23000520901F01F0103FA01F140F822103368BE
:10A240000422C3F800252C2303FB05830022C3E965
:10A25000062283F829205A61012283F82A203846F1
:10A26000BDE8F883094A01F00F015354E7E70827D6
:10A27000F5E71127F3E700BFF45F0020B19F02006C
:10A28000000300508000020000E100E014ED00E057
:10A290002DE9F047204F90F804904FF02C0808FB70
:10A2A000097405466669002E34D162610068A160B8
:10A2B00026624FF48E7184F82860FFF72BFE286821
:10A2C000012383602146FFF72DFE6368A0468BB90A
:10A2D0002868D4F814A0236A9A4511D82A68D2F8BD
:10A2E0001C31002BFBD00123D3602C2303FB09730B
:10A2F00000225A613046BDE8F08794F828303BB917
:10A30000D0F81C31002BF8D04146FFF70BFEE2E7F6
:10A310000F26EAE71126EDE7F45F00200379044AEF
:10A320002C2101FB03235869003818BF0120704716
:10A33000F45F00202DE9F843394F05792C2303FB06
:10A34000057306465C6824B103684FF40170C3F8D6
:10A3500008032C2303FB0573986950B1D8690028C2
:10A360003ED024B133684FF40172C3F804231124A2
:10A3700033E09A61D9605862D8612C2303FB0573DE
:10A3800093F829301BB910B93046FFF7DAFD4FF0CA
:10A390002C0909FB05783068D8F80430002B34D13B
:10A3A0004FF4A271C146FFF7B5FD3068D0F82431F3
:10A3B000D0F80821D0F84441B2B90CB9002BF4D040
:10A3C0002C2202FB05750022AA6123BB2CBB95F849
:10A3D000291033680122B1B11A602046BDE8F88324
:10A3E0001961DA610120C8E7002BE9D1002CE7D11F
:10A3F0004946FFF7B6FDD8F82430D8F818209A421D
:10A40000D3D82346DCE75A60E7E74FF40173C0F87E
:10A4100004330024E1E70324DFE70F24DDE700BF76
:10A42000F45F00200023435082B043580193019B06
:10A4300002B070471FB501238DF80030044BCDE901
:10A440000110D3E900126846904705B05DF804FB9F
:10A45000206000207FB5434AD2F82461002E60D0EE
:10A4600010464FF49271FFF7DDFF02238DF80030A4
:10A47000D2F88034C2F880340393D2F83C3502938A
:10A48000394BDA6801920022C3E906226846D3E913
:10A49000001290473348D0F8443173B14FF4A271A1
:10A4A000FFF7C0FF304B9A693AB10022C3E9062298
:10A4B000D968D0F83C05FFF7BDFF2A48D0F8203115
:10A4C000ABB14FF49071FFF7ADFF0123C360264B92
:10A4D0005A6962B1D0F84C150291002299688DF842
:10A4E000002001915A616846D3E9001290471D4847
:10A4F000D0F858319BB14FF4AC71FFF793FF1A4B72
:10A500005A6962B1D0F84C150291002299688DF811
:10A51000002001915A616846D3E90012904704B0C7
:10A5200070BDD2F81031002BB4D04FF488711046B2
:10A53000FFF778FF0C4BD2F83C0599698842A9D106
:10A54000DC69D96864B1D2F8005225F02005C2F860
:10A5500000521A699C61DA60DE61FFF76BFF99E7D0
:10A560009C61FAE700200040206000202DE9F843BC
:10A57000674B06799146242202FB0632044692F884
:10A5800020200D469846002A40F0BE8061490068B0
:10A59000FFF79EFC0746002840F0B8802868421C60
:10A5A00010D01F2887BF5C4A00F01F0303464FF0FE
:10A5B000A0420121994003F5E073C2F80815032178
:10A5C00042F8231069684B1C0DD01F298BBF01F086
:10A5D0001F030B46504A4FF0A04203F5E0734FF0C3
:10A5E000000C42F823C02368AA69C3F8242595F813
:10A5F00014C06A7DBCF1010F4CEA0202C3F86C255D
:10A60000C3F80C05C3F814152BD1A968481C0DD04C
:10A610001F298BBF01F01F020A463F484FF0A040A0
:10A6200002F5E0724FF0000C40F822C0E868421CCE
:10A6300013D01F2887BF384A00F01F0C84464FF004
:10A64000A0424FF0010E0EFA0CFE0CF5E07CC2F8B1
:10A6500008E54FF0030E42F82CE0C3F80805C3F8F4
:10A6600010152423734308EB0302C2F804902A69EF
:10A6700048F80320B9F1000F30D020682A7F4FF44A
:10A680008871FFF7CFFE20684FF49071FFF7CAFE84
:10A6900020684FF49271FFF7C5FE20684FF4A27155
:10A6A000FFF7C0FE4FF4AC712068FFF7BBFE2368D4
:10A6B0001A49C3F80413190B43F307335201002B53
:10A6C000D2B21CDB1648C51885F8002301225B09AD
:10A6D00001F01F0102FA01F140F82310236808225B
:10A6E000C3F80025242303FB06830022C3E90622C6
:10A6F0005A61012283F820203846BDE8F883094BCF
:10A7000001F00F015A54E9E70827F5E71127F3E7AD
:10A710002060002055A402000003005010034200F6
:10A7200000E100E014ED00E001F06043B3F1005FF0
:10A730002DE9F041064638D11E4B0779242505FB4B
:10A74000073598466C69002C31D16A610068A960B0
:10A750004FF49071FFF766FE4FF4AC713068FFF76D
:10A7600061FE33686A69A968C3F84415C3F84825CF
:10A7700001229A606A68AAB9D3F82021D3F8584117
:10A780001AB9002CF8D00F2407E0002CFBD10122CD
:10A79000DA60D3F85821002AFBD0242303FB078773
:10A7A00000237B612046BDE8F0811024FAE71124E4
:10A7B000F8E700BF206000200379044A242101FB50
:10A7C00003235869003818BF01207047206000201B
:10A7D000F8B501F06043B3F1005F04460F465ED167
:10A7E0000379304D242101FB0351496821B10068F0
:10A7F0004FF40476C0F80863242000FB03539E69DD
:10A8000056B1D869002839D021B123684FF40472B9
:10A81000C3F80423112030E09A61DF60DE61206814
:10A820004FF48871FFF7FEFD20684FF4A271FFF727
:10A83000F9FD2368C3F83475C3F8382516BB012227
:10A840001A602179242202FB015252680ABBD3F814
:10A850001041D3F84421D3F82401144302D1002835
:10A86000F5D02246242303FB01550023984218BF4C
:10A8700003209A42AB6118BF0F20F8BD1F61DA6157
:10A880000126CCE7D3F8002242F02002C3F80022D0
:10A89000D7E74FF40472C3F804230020EDE710203B
:10A8A000EBE700BF206000201F288ABF094B4FF054
:10A8B000A04300F01F0003EB8000D0F8003723F422
:10A8C0004033C0F80037D0F8003743EA0141C0F800
:10A8D00000177047000300500220FEF7F9BE000089
:10A8E0002DE9F04780460D46FEF720FF0328044679
:10A8F00010D8012D10D0022D30D05DB91A48FDF7C7
:10A9000098FC1A4B04EB440213449E78184B1B5DD1
:10A91000B34219D0BDE8F087144D00EB4002A918EE
:10A92000AE5C4A78470052B1DFF84C900E484A4678
:10A930004FF48041FDF765FC08B989F800803B19A8
:10A940002B449A780A4B1A55002EE3D0094B1B680A
:10A95000002BDFD03046BDE8F047184700EB40043D
:10A96000024804446678EFE768600020A860002091
:10A97000C1600020BC6000204460002000780221FB
:10A98000FFF7AEBF08B5094B1B7853B10020FEF7A7
:10A990006DFE0120FEF76AFEBDE808400320FEF7C9
:10A9A00065BEBDE80840FEF775BE00BF45600020EB
:10A9B000F8B57B4C237805461BB100232370FFF7C5
:10A9C000E1FF172D00F28880DFE805F00C17174330
:10A9D00054657680888D888D959A9A9A9A9AC4C97A
:10A9E000D1D9E4E4FFF7CEFF6E48FDF722FC6E4BB1
:10A9F000002204461A702046F8BD0020FEF70EFE25
:10AA0000F8B10020FEF732FE022D0CBF4FF4E161D9
:10AA10004FF47A61644B1D704FF400404FF47A7428
:10AA20000025E0FB01454FF4FA6200232046294649
:10AA300002F0C6FA00220146BDE8F8405948FDF789
:10AA4000E0BBFEF7FFFD022D0CBFC8214FF4C8711B
:10AA5000E0E70020FEF7E2FD40B10020FEF706FE31
:10AA60004FF44871504B03221A70D5E7FEF7EAFD08
:10AA7000C821F7E70020FEF7D1FD38B10020FEF72E
:10AA8000F5FD4FF47A61484B0422EDE7FEF7DAFD5D
:10AA90004FF4C871F7E70020FEF7C0FD48B1002071
:10AAA000FEF7E4FD404B05221A7040F6CD4100222E
:10AAB000C2E7FEF7C7FDF5E70020FEF709FE3A4BB7
:10AAC00006221A70002240F26661B5E70020FEF708
:10AAD000CDFD354B07221A7000248CE70120207031
:10AAE000FEF7F6FDEEE701202070FEF7F1FD0022F3
:10AAF0004FF40051A0E7FEF7DCFD2B4B0C22EAE7F8
:10AB00002A482B4EFDF795FBD5F1110504461CD0C4
:10AB1000D8B9012D13D0C8235D434FF400474FF43B
:10AB20007A7000214FF4FA620023C7FB050102F09E
:10AB300047FA224601461D48FDF763FB0446022002
:10AB4000FEF780FD0123337055E70220FEF78EFDEE
:10AB50000023F8E7FFF716FF134B1222BBE7FFF7BE
:10AB600011FF0020FEF76EFD0F4B1322B3E7FFF736
:10AB700009FF0120FEF766FD0B4B1422ABE7FFF740
:10AB800001FF0020FEF75EFD0120FEF75BFD064B96
:10AB90001522A0E7FEF78DFD034B1D709CE700BF5B
:10ABA000B860002088600020C0600020486000205D
:10ABB00045600020044B1B68DB0703D5034B187866
:10ABC000FFF7F6BE704700BFB4600020C0600020F1
:10ABD000032801D8FEF796BD00207047044B1B6880
:10ABE00013F0010301D0FFF7E3BE1846704700BF22
:10ABF000B460002038B51C4B18601C4B10F00204E8
:10AC0000054619601AD01A4B1A480E221A700F22E4
:10AC1000DA7010229A7111225A72042140F23332F2
:10AC2000FDF752F9044648B9FDF7A4F9044628B9DE
:10AC30000146114A1148FDF7D9FA0446EB0711D530
:10AC40000120FEF785FD6CB921460D4A0D48FDF740
:10AC5000CDFA044630B9BDE838400B4A0B48012113
:10AC6000FDF7C4BA204638BDB4600020BC600020A7
:10AC7000A86000207CE202007DA90200A0E20200A0
:10AC8000B5AB0200A4E20200D9A802009CE20200D7
:10AC9000032811D8012A0AD101290FD100F10E028F
:10ACA000D2B20D4B00EB40001A540020704701292E
:10ACB000F7D0022904D049B1072070470022F8E7F5
:10ACC000054B00EB400018444270EEE7024B00EBEE
:10ACD000400018448270E8E7A8600020032808B507
:10ACE00009D803210E20FFF7DFFD0F200221FFF717
:10ACF000DBFD002008BD0620FCE708B5012202218B
:10AD00000020FFF7C5FF08B1072810D10722022154
:10AD10000120FFF7BDFF08B1072808D100210A2252
:10AD20000846FFF7B5FF10B1072808BF002008BD8F
:10AD30000388102B10B502D0112B1ED010BD1A4C59
:10AD40002168B1B901220846FFF7A2FF08B1072820
:10AD500024D1072202210120FFF79AFF08B107281A
:10AD60001CD1042202210020FFF792FF08B107281E
:10AD700014D1236801332360E0E70B4A1368013BD9
:10AD80001360002BDAD1FFF7B8FF0028D6D0074BAD
:10AD90001B68002BD2D0BDE810401847034B1B683E
:10ADA000002BE6D09847E4E7CC600020C860002084
:10ADB00008B50020FFF792FF08B1062806D1012050
:10ADC000FFF78CFF10B1062808BF002008BD000067
:10ADD0000D4B10B518600C4629B10120FFF7F8FEA5
:10ADE00040B102232370094B1B6853B9BDE81040E2
:10ADF000FFF783BFFFF7ECFE08B10B23F2E72070EB
:10AE0000F1E7002010BD00BFC8600020CC6000202A
:10AE100075DF704776DF70477FDF70478FDF7047E1
:10AE2000FDF7BEB84288034B0146182000FB0230F4
:10AE300001F070BD6065002008B5074801F0B0FB67
:10AE400008B1FDF7ADF80120FFF7C8FE18B1BDE865
:10AE50000840FDF7A5B808BDEC6500200388212B4C
:10AE600013B504460FD80F2B11D9103B112B0ED858
:10AE7000DFE803F00F2E0D490D0D0D0D0D0D0D3BEF
:10AE80000D0D0D540D5A3B2B56D0562B54D002B0FD
:10AE900010BD81882B4B1820002200FB013001F0EF
:10AEA0006BFE08B1FDF77CF80720FFF797FE08B1AD
:10AEB000FDF776F8A188244800F0C2FD08B1FDF73F
:10AEC0006FF801F011FD0328E1D8FFF7B5FFDEE7C9
:10AED0001E4B1F48A2881F49C01AC0080004237ACD
:10AEE00040F00300FCF771FDD1E7037A022BCED1CD
:10AEF000164B17481849C01AC008000440F0030058
:10AF0000FCF756FDC3E7002380881A468521FFF72A
:10AF100083FF0028BBD0FDF743F8B8E700F1080134
:10AF20008088FFF775FFF4E7002301A98088ADF85A
:10AF30000430FFF773FFECE7A0881321FFF76AFFE7
:10AF4000E7E700BF60650020705200201CDA0200B5
:10AF500044DA0200A8E20200D6E20200F8B5037863
:10AF6000012B04463DD0022B2CD053BB204C214D4D
:10AF700020882844FDF704FB238801339BB21D443D
:10AF8000238015F8012C0A2A05D00D2A03D01A4A6D
:10AF900012889A4215D8194E164F00252288394634
:10AFA000304601F099FD082804D01328F6D008B1E6
:10AFB000FCF7F6FF0135042D06F11806EED100234B
:10AFC0002380F8BD0E4B0F480F491B1ADB081B04EA
:10AFD00043F00100FCF7ECFC6068BDE8F840FCF7CA
:10AFE000DFBF074B074809491B1ADB081B04EFE7C3
:10AFF000C4610020D06000206C52002060650020F9
:10B0000044DA02001CDA0200F4E2020026E3020045
:10B0100010B504460020FFF7E1FD08B1FCF7C0FFC2
:10B0200024B9FFF7C5FE08B1FCF7BAFF012010BD37
:10B030000A8840F677239A4213B50C4617D10D4B78
:10B040000D480E49C01AC008000440F003000190EA
:10B05000FCF7AEFCA3880A4A0A490198033B9BB25D
:10B0600013801A4602B0BDE81040FCF7AEBC02B037
:10B0700010BD00BF1CDA020044DA020052E30200F5
:10B080006C5200206EE30200042838B506D00A286E
:10B0900014D1BDE838400020FEF714B8084D002454
:10B0A00068881321FFF7B6FE30F0080301D0FCF7E3
:10B0B00077FF0134042C05F11805F1D138BD00BF2C
:10B0C000606500202DE9F84F0B78012B06460D46F0
:10B0D00023D0022B6CD0002B52D13C4B3C4C3D4931
:10B0E000E41AE408240444F003042046FCF760FC5E
:10B0F000698805F10E02304601F03EFD08B1FCF70B
:10B100004FFF304601F0B6FC08B1FCF749FF20467E
:10B110003149BDE8F84FFCF74BBC2D4C2B4B8F68E9
:10B12000B1F80C80DFF8BC90E41AE408240444F081
:10B1300001040025454525D307EB080313F8013C1E
:10B140000D2B30D0DFF8A0B000264FF01809234BAC
:10B1500009FB063A42463946504601F0BDFC054619
:10B1600058B11128F6D0082807D002465946204683
:10B17000FCF722FC2846FCF713FF0136042EE6D12B
:10B18000BDE8F88F785DFDF711FA064648B1112841
:10B19000F8D020462A464946FCF70EFC3046FCF71C
:10B1A000FFFE0135C6E70A20FDF700FA1128C8E7BF
:10B1B000064B07480A49C01AC008000440F00300C3
:10B1C000FCF7F6FBBDE8F84FFFF736BE1CDA0200CD
:10B1D00044DA020096E30200AAE302006065002060
:10B1E00027E40200D8E30200FEE302001FB5037863
:10B1F000052B12D0062B17D0042B2AD1164B17483B
:10B200001749C01AC008000440F00300FCF7D0FB47
:10B2100004B0BDE81040FFF70FBE4068C8B104B0ED
:10B22000BDE81040FCF7BCBE41680B4C0B488B7866
:10B230004A78001B8C7903944C7902940C79019420
:10B24000C008C97800910004064940F00300FCF7EB
:10B25000D2FB04B010BD00BF1CDA020044DA0200C9
:10B2600063E4020035E4020008B50849084800F02C
:10B27000B5FD08B1FCF794FE0548F72100F0C9FDC3
:10B2800018B1BDE80840FCF78BBE08BD31B0020024
:10B29000C065002000B54FF480418BB00020FCF762
:10B2A000F3F908B1FCF77CFEFCF72EF9FCF76CFF14
:10B2B00008B1FCF775FE4F4D0FCD04AC0FC495E8F7
:10B2C00003004D4B4D4A00934FF4807384E8030014
:10B2D000CDE9022301934A4A0723694604A8FDF7F2
:10B2E000F7F808B1FCF75CFE46490120FFF782FC45
:10B2F00008B1FCF755FE04A90020FFF769FD08B16D
:10B30000FCF74EFE0822002104A801F0DFFF3E4CAE
:10B310003E4B049304A8059400F054FB08B1FCF7DD
:10B320003FFEFDF793FE08B1FCF73AFE01F07CFC0E
:10B3300008B1FCF735FE002304A90120049301F0B5
:10B3400001FD08B1FCF72CFE04A801F0CDFD08B109
:10B35000FCF726FEFFF788FF2D4B04932D4B2E4D57
:10B36000CDE90534002404A9284601F01DFB08B1ED
:10B37000FCF716FE0134042C05F11805F3D101F099
:10B38000B1FA102200210DEB020001F09FFF012312
:10B39000224A23488DF8143004A98DF81C3001F09E
:10B3A000A4F808B1FCF7FCFD1E4A1D48032101F07A
:10B3B00071F808B1FCF7F4FD19480022042101F0EE
:10B3C00080F808B1FCF7ECFD174801F025FF174B9A
:10B3D00017481849C01AC008000440F00300FCF7E1
:10B3E000E7FAFFF729FDFCF79FF90028FBD1FDF7ED
:10B3F00043FEF8E7BCE402003C6600203C67002006
:10B400005DAF020089B002005052002025AE02005C
:10B41000C5B0020021AE020060650020EDB102005F
:10B42000EC65002024E5020073E402001CDA02004F
:10B4300044DA020097E402000369C1688B429DBFB1
:10B440008268D21802F1FF3203F1FF3394BF501A21
:10B45000581A70472DE9F843D0E902940546A9EB44
:10B4600004084068904520440F46144404D901F074
:10B4700004FFEC60BDE8F8834246A4EB090401F048
:10B48000FCFE6868224607EB0801F0E72DE9F84367
:10B49000C5680646894617464FF000083469B36808
:10B4A0007068A54228BFE418013C621B5C1BBC42CB
:10B4B00028BF3C46944228BF1446494628442246A9
:10B4C00001F0DBFEB3682544AB4208BF00253F1BFB
:10B4D000A044A144F560E1D14046BDE8F8830000F6
:10B4E00010B5114C114AA2610223C4E90433104B78
:10B4F000E361A2644FF400730E4A0F492362E264D1
:10B5000000231022E01DA3626362E362A36563650A
:10B51000E365226501F00DFF0849204601F009FFAF
:10B520002023A37110BD00BF3C68002028E5020065
:10B53000C4680020B468002031E5020035E502004F
:10B54000F8B5184C182300FB033503FB00402544D5
:10B55000C46A012C0F4616460FD0022C1AD0F4B93B
:10B560002846FFF769FF864205D832463946284605
:10B57000FFF770FF34462046F8BD2846FFF75CFF12
:10B580008642344628BF0446224639462846FFF7FD
:10B5900061FFF0E72846BDE8F840FFF777BF0024D9
:10B5A000E9E700BF3C680020FFF79ABF64DF7047FF
:10B5B00030B5C8B1F2B10024651C8D4206DA158899
:10B5C000A54212D805196D789D420ED1A14211D91C
:10B5D000005D48B1013880B230B10234A3B210FA34
:10B5E00084F4A14206DB138030BD055D01352C4497
:10B5F000A4B2E1E70020F7E7F0B587B000230646E4
:10B600000C461046ADF8063002AA10230DF10501D4
:10B610008DF80530FFF7CAFF16B9002007B0F0BD5E
:10B620000028FAD19DF80550042D2BD0102D2BD0D9
:10B63000022DF3D10323BDF806207AB90DF10602DD
:10B6400021463046FFF7B4FFBDF806302BB92B4634
:10B650000DF106023046FFF7ABFF0446BDF8067059
:10B66000002FDAD00025AC42D7D9E8199DF8052083
:10B6700002A9304401F09DFD48B19DF805301D44FC
:10B68000ADB2F0E70523D6E706250723D3E701206F
:10B69000C4E7000030B50B4B19680B4B00229142F8
:10B6A00001D1002009E09D788478A54206D11D884B
:10B6B0000488A54202D1054B186830BD013204331D
:10B6C000EDE700BFCC6A0020D06A0020C46A0020E9
:10B6D0002DE9F84F90F8C6A24FF0760B04460AFB0E
:10B6E0000B0088469146FFF7D5FF074670B3D4F8A4
:10B6F000CC52052D2AD804EBC5165A46A6F8D2928C
:10B700000BFB0A4106F5357001F0B7FDB8F1000FEB
:10B7100014BF0023022386F8D0320D4BC6F84C73B9
:10B720001A6801359542C4F8CC521D460ED104F575
:10B7300034760027F36F304698472B6801379F42D5
:10B7400006F18006F6D30023C4F8CC32BDE8F88FAA
:10B75000CC6A002030B5A1B004460D467C22002101
:10B7600001A801F0B3FD03238DF80430044BADF8BC
:10B7700006501B6802940BB101A8984721B030BD58
:10B78000C46A00202DE9F041074691F8C6027623ED
:10B790004FF00008A0B081F8C88200FB03100C46EF
:10B7A0001546FFF777FF064660B17C22414601A8A7
:10B7B00001F08CFD01238DF80430ADF8065002979E
:10B7C00001A8B04729462046FFF7C4FF20B0BDE8D6
:10B7D000F081000030B58BB0044620220D4602A84F
:10B7E000002101F073FD04220DEB0200002101F0A5
:10B7F0006DFD94F8C53294F8C62213B3013B76214F
:10B80000DBB25143122000FB031323445B8A013354
:10B810009BB2ADF80430762303FB024202A91389E0
:10B82000ADF8063003238DF80830019BCDE90543C0
:10B83000064B0493064B2A46186800F0FFFC0BB039
:10B8400030BD762303FB0243DB88E2E785B70200C5
:10B85000E86A0020F0B5044689B020220D4668460B
:10B86000002101F033FD94F8C7321E4A01331268FB
:10B87000DBB2934284F8C7324FF000022BD294F827
:10B88000C632194F84F8C5220133DBB2762113FB8F
:10B8900001F057F8237084F8C6322618275001FBB0
:10B8A000034332711B68CDF81230104B0293022211
:10B8B0000F4B8DF800200122ADF81020186803947A
:10B8C0002A46694600F0BAFC18B12A462146FFF71D
:10B8D00059FF09B0F0BD84F8C82229462046FFF779
:10B8E00039FFF6E7CC6A0020D06A002085B7020055
:10B8F000E86A00202DE9F047044688B00D46164658
:10B9000000212022684601F0E1FC94F8C62294F858
:10B91000C512762312FB03F2A018122790F804C078
:10B9200017FB012301F1010E0A33E645234411D030
:10B9300004F11C0900F1220E0CF1FF389144CAB247
:10B9400094450BD988451B890ED102899A421BD197
:10B95000002312E01B890289934215D101232B7029
:10B96000002008B0BDE8F08707FB01FA01333EF87C
:10B970000A2093421DD109EB0A0394F8C522013233
:10B9800084F8C5220131DAE701339BB2ADF81030FB
:10B990000A4B029300210A4B297004218DF80010F4
:10B9A000ADF81220186803943246694600F046FC50
:10B9B000D7E7013A9BB292B2E8E700BF85B7020031
:10B9C000E86A002010B570B1026862B1436853B1F3
:10B9D000064900200860064901240C7005490A60E8
:10B9E000054A136010BD0E20FCE700BFCC6A0020A2
:10B9F000C86A0020C46A0020E86A002010B5044626
:10BA000080B10C4B1B787BB1FFF744FE70B90A4A3A
:10BA10001368052B0CD80949246841F823400133E9
:10BA2000136010BD0E20FCE70820FAE70020F8E7BD
:10BA30000420F6E7C86A0020CC6A0020D06A002003
:10BA4000F0B50D468BB0044600283BD0204B1B7848
:10BA5000002B39D01F4B1B68002B35D090F8C81233
:10BA6000002933D14FF4BA621B4F019101F02EFC33
:10BA70000199202202A801F029FC3868294600F02B
:10BA80007DFCE8B9154BC4F8CC0284F8C502A4F8D3
:10BA9000C6021868206002238DF808300126104B7A
:10BAA000CDF81A00A4F8CA523868ADF818602A46D2
:10BAB00002A90594049300F0C1FB08B984F8C86298
:10BAC0000BB0F0BD0E20FBE70820F9E71120F7E7E7
:10BAD000C86A0020CC6A0020E86A0020D06A0020F2
:10BAE00085B702002DE9FF410C46054660B159B10A
:10BAF000904B1B7843B10388322B64D007D8112BAD
:10BB000000F00A81302B20D004B0BDE8F081332B47
:10BB1000FAD18288B1F8CA329342F5D1C68891F839
:10BB2000C6C291F8C572002E00F0C080762101FBDC
:10BB30000C4C00239CF804108DF80F307B1C8B42BA
:10BB400000F0E48084F8C532A2E08388B1F8CA220C
:10BB50009A42D9D1C3886BBB91F8C632762202FBD8
:10BB600003130269C3F8062091F8C432827A1344A1
:10BB7000062B0CDC81F8C432A9882046FFF72AFE88
:10BB80000028C1D0AA882146FFF7FCFDBCE70623A8
:10BB900081F8C4326848694B6949C01AC00800047A
:10BBA00040F002000190FBF703FF66490198FBF7A4
:10BBB000FFFEE1E700212046FFF78AFDA988204625
:10BBC000FFF748FEA0E78288B1F8CA329A429BD1BB
:10BBD000C388002B58D191F8C672762317FB03F760
:10BBE00001EB0708837A98F804603344062B26DCBF
:10BBF00088F80430334603EBC30207EB420205F139
:10BC00000C062244002198F80400834206F10A063B
:10BC100002F1120227D31222013B02FB034394F8E4
:10BC2000C62276213B4401FB0242598A138999427C
:10BC30002AD2062828D0A98884F8C5029DE70623C1
:10BC400088F804303C483D4BCA5B3F49C01AC008E5
:10BC5000000440F002000190FBF7AEFE3B49019862
:10BC6000FBF7A6FEC6E73046013350F80ACD42F88E
:10BC700008CCD0F804C042F804CC00891080518070
:10BC80009180D1801181BEE7002384F8C532AA8853
:10BC90000DF10F012046FFF72DFE00287FF472AF53
:10BCA0009DF80F30002B3FF42FAF32E0762303FBDB
:10BCB0000CF1122303FB0713B0F80AE02344764586
:10BCC000BFF434AFC189A1F52451082908D8DFE8B1
:10BCD00001F014170507070707071A0081899982E1
:10BCE000998A39B1D98A29B1198B19B1598B00298F
:10BCF0007FF41CAF01360630E1E78189D982EFE796
:10BD000081891983ECE781895983E9E701238DF85B
:10BD10000F30AA8801214EE7B1F8CA3282889A42D0
:10BD200001BF002381F8C8324FF6FF73A1F8CA3271
:10BD3000EAE600BFC86A00205CDA02001CDA0200F2
:10BD40003CE502005BE50200A0E50200E6E502003A
:10BD500090DF7047A5DF7047B5DF70477FB50023E0
:10BD6000ADF80810ADF80A106A4602A9064603931A
:10BD70000093ADF80430FFF7EBFF054600B3124B1C
:10BD8000124CE41AE408FDF715FB240444F0010406
:10BD900003460F4932462046FBF717FEBDF8002048
:10BDA000BDF8023052EA030103D00A492046FBF7EE
:10BDB0000CFEBDF804201AB107492046FBF7FCFD34
:10BDC000284604B070BD00BF1CDA02007CDA020015
:10BDD0004CE6020096E60200D5E6020070B5B0B16E
:10BDE0004FF0F7130360FB238162037100F1200120
:10BDF000F726172500221B24C68005818272C27295
:10BE00000373447308308842F6D1002070BD0E20C1
:10BE1000FCE730B1A1F11703E02B04D841800020EA
:10BE200070470E207047072070470000F7B58588DF
:10BE3000032D0C461AD80388242B4FEAC50700F0BF
:10BE4000A58015D8112B79D0232B00F0B280102BB0
:10BE500042D03C44A37A4BB1E1882846FFF77AFFF1
:10BE6000002840F0AD800123A072E37203B0F0BD62
:10BE70003A2B6ED0552BECD1C388CE19172BF188F5
:10BE800038BF17238B4228BF0B4633810023B37280
:10BE90002846FFF761FF60B1FDF78CFA514B52491C
:10BEA000024652481B1ADB081B0443F00100FBF753
:10BEB00083FDF37A002BCCD1A36A002BC9D040F6C6
:10BEC0007722ADF800203289ADF80250ADF8042099
:10BED000694620469847BCE7CE190B793373C37B7C
:10BEE000012B13D0022B14D0F18833898B4205D259
:10BEF0002846FFF72FFF70B90123F372317B737B64
:10BF00008B42A6D22846FFF729FFA2E70B88F380D1
:10BF1000EAE74B88FBE7112802D10123B372EDE772
:10BF2000FDF748FA2F4B3249024630481B1ADB080E
:10BF30001B0443F00100FBF73FFDDFE7CB19F722BD
:10BF4000DA8017221A8100225A8141F6FB329A8147
:10BF50007FE7CE194389F288934228BF1346172BF7
:10BF60008A6A38BF1723338162B1F17A51B140F642
:10BF70007721ADF80010ADF80250ADF804306946F5
:10BF8000204690470023F372B37262E7CB19027A1E
:10BF90005A738B6A002B3FF45CAF00218DF80510BB
:10BFA0004DF67A21ADF80010ADF802508DF804205E
:10BFB0008EE7CB19017A1B7B994228BF1946A1E76E
:10BFC00011283FF453AFFDF7F5F9064B0849024637
:10BFD00006481B1ADB081B0443F00100FBF7ECFCCE
:10BFE00044E700BF7CDA02005CE702001CDA0200D2
:10BFF0002BE702009BDF70479DDF70479EDF704795
:10C00000A1DF7047A3DF7047AEDF704730B504880B
:10C0100000239AB2944206D9456835F813508D42F0
:10C0200003F10103F5D1104630BD8B6910B50C4604
:10C030001988102912D80231FCF7ADFF606078B181
:10C04000A16900230222FCF7E8FFA2696068128858
:10C05000E1690223FCF7E1FF002010BD0920FCE7A5
:10C060000420FAE710B50C46C98A10290AD8FCF753
:10C0700092FF606040B1E28AA1690023FCF7CDFF26
:10C08000002010BD0920FCE70420FAE7F0B58BB0D2
:10C09000002204460DF10601C068124EFDF7E1F8DA
:10C0A000142502460AB10BB0F0BDBDF80670A368B6
:10C0B00005FB073702A93846FDF7D3F838B100224F
:10C0C000E0680DF10601FDF7CCF80246EAE79DF8BD
:10C0D000083056F8233013B10398FCF746FF0022CE
:10C0E000E8E700BF08E80200F7B505460C4C0D482C
:10C0F0000092241AE40824040B460F4616460A4907
:10C100002A7844F00100FBF76AFCAB6833B1E968B8
:10C110003A46304603B0BDE8F040184703B0F0BDE2
:10C1200084DA02001CDA020098E70200F0B58FB052
:10C130000D46012206A90646FDF793F8044690B97C
:10C140009DF81830052B65D8DFE803F0030F1C2499
:10C15000292EBDF82A20BDF828102846FFF750FFE9
:10C160000446112C40D10FB0F0BD02A90798BDF8CC
:10C170002E200C910023FCF75AFF0AA92846FFF74E
:10C1800041FFEDE7BDF828100DF12A022846FFF720
:10C1900031FFE5E70AA92846FFF72EFFE0E70AA9E5
:10C1A0002846FFF72BFFDBE70DF1060402AB214623
:10C1B00007980D9302220023FCF739FFBDF80620F3
:10C1C0000D9907980C940223FCF731FF0AA9284621
:10C1D000BDF80670FFF718FF04460028C1D1BDF86E
:10C1E0000630BB4218BF0C249DF818200F4B53F8A3
:10C1F000223013B10798FCF7B8FE002206A930469A
:10C20000FDF72FF8002CAED02246294606A8FFF7EE
:10C210006BFFA8E70648074B07491B1ADB081B04FE
:10C2200043F00200FBF7C4FBDEE700BF08E80200B2
:10C230001CDA020084DA0200E2E702002DE9F8438A
:10C240000F461446054620B94FF00E084046BDE89B
:10C25000F8830029F8D0FFF719FF3B78052B6AD83F
:10C2600021462846FFF7D2FE2B88834263D014264E
:10C270004643A8683044FCF7EDFF002860D03B78C7
:10C28000052B3BD8DFE803F00311171E242A7A8A16
:10C29000398A2046FFF7B4FE112851D058B3024620
:10C2A00021463846FFF720FF25E007F11001204620
:10C2B000FFF7A8FEF0E7398A07F112022046FFF7E0
:10C2C00099FEE9E707F110012046FFF795FEE3E745
:10C2D00007F110012046FFF791FEDDE7BB6907F18A
:10C2E00010012046B3F80080FFF78EFE30BBBB691B
:10C2F0001B8843450DD14FF00008A7E71B4B1C4896
:10C300001C49C01AC008000440F00200FBF750FBB3
:10C31000F1E70C20C3E72869002895D039469847F3
:10C320008046A0B192E73B7859F82330BBB17868DA
:10C33000FCF71BFE13E04FF0070887E71128AED18A
:10C340000D4A3B7852F823309146002BE3D1A86880
:10C3500039463044FCF728FF80460028E3D1A8681E
:10C3600021463044FFF7E2FE70E700BF1CDA02000E
:10C3700084DA0200E2E7020008E80200F8B50D46A0
:10C38000044678B3FFF782FE29462046FFF73EFEBB
:10C390002288824211D00020F8BD616831F8131064
:10C3A000814203F101030BD0208800234FF6FF7672
:10C3B0009AB282420BD30420EEE700234FF6FF70BF
:10C3C00099B28A42E9D82069FCF7CDFDECE76168B3
:10C3D0005A0001EB43078A5AB24203F10103E7D145
:10C3E0003D80D8E70E20D7E737B50C4608B301B338
:10C3F0000588112D15D181882046FFF707FE238877
:10C40000ADF80600834214D0112D14D163684FF6A5
:10C41000FF7223F810200DF10601E068FCF7C4FE5E
:10C4200007E0A5F130031F2BE5D9A5F150031F2B21
:10C43000E1D903B030BDA368142202FB0030FFF73E
:10C4400075FEF6E78ADF70478BDF70478CDF704739
:10C4500030B5037A89B004460D46CBB1837C019395
:10C46000FFF7F2FF1422002103A800F02FFF019B29
:10C4700004F10A0204F11401A81CFFF7E7FF0523E9
:10C480008DF80C30049018B1636A0BB103A898477B
:10C4900009B030BD10B5034668B162B103290CD1B3
:10C4A000007960B91C8811888C4203D00121197170
:10C4B00012681A6010BD0E20FCE70720FAE704207E
:10C4C000F8E750B1CB060AD011F0040116BF0123E2
:10C4D000417143718271002070470E207047072020
:10C4E0007047007DC0F3C0007047F8B50D460446A4
:10C4F000002852D042620021082200F0E7FE002D01
:10C5000038D02B7923722B7BA3742B68FBB104F1F9
:10C51000140203F1080718685968164603C6083361
:10C52000BB423246F7D1186830609B88B380AA6856
:10C53000C2B11368C4F80A305368C4F80E3004F16D
:10C540002803A3641F23A4F84C300020F8BD6369BE
:10C5500003F0E30343F4200343F482736361502345
:10C56000A361E4E7062363811823E3604FF4C873F3
:10C570002382E4E76369257203F0E30343F42003B5
:10C5800043F4827363615023A361062363811823FC
:10C59000E3604FF4C8732382D1E70E20D6E7000092
:10C5A00010B5044686B048B31422002101A800F05B
:10C5B0008DFEFFF749FF2046FFF793FF30B1636A16
:10C5C00023B101228DF8042001A8984704F1480105
:10C5D00004F11400FFF736FF044630F008000BD0DA
:10C5E0000748084B08491B1ADB081B0443F00100ED
:10C5F0002246FBF7E1F9204606B010BD0E20FBE70E
:10C600001CDA02006CDA020020E802002DE9F04F8B
:10C6100006468BB036F8083B1B2B07460C4600F04D
:10C6200094801D2B16D0102B32D1142200210DEB3B
:10C63000020000F04BFE06238DF81430BB88ADF8E5
:10C640001C3004F114030993636A0696002B40F032
:10C650008F801DE0142200210DEB020000F036FE59
:10C6600004F1140320460993FFF73BFF04F1480A45
:10C6700088B102238DF8143005A8636A069698479E
:10C6800051460020FFF7DEFE31462046FFF7E0FE70
:10C690000BB0BDE8F08F94F8058094F80690B8F1DF
:10C6A000000F45D094F804B0B98C224604EB8B03FC
:10C6B000054693420CD1B9F1000F18D0AB4518D103
:10C6C0009DF81C3043F004038DF81C30012313E067
:10C6D000386A0191CDE90223FEF78EFFDDE90112F0
:10C6E000039B00B30135EDB2B9F1000F1ED1002D4F
:10C6F000E6D14FF00008434601220696B9F1000F3B
:10C7000019D09A421DD100238DF8143031462046AD
:10C71000FFF79EFE636A0BB105A8984751460020BB
:10C72000FFF790FEB4E7B9F1000FC7D10432C0E7BC
:10C7300043464246E1E7B8F1000F02D08DF814906D
:10C74000E4E703238DF81430E4E714220DEB020034
:10C75000002100F0BBFD3A7A012A99D1636A002BCF
:10C7600096D0042114348DF8141009948DF81820F3
:10C7700005A898478CE70AB1FCF72DBEFCF734BE3C
:10C7800002487C22002100F0A1BD00BFEC6A00201D
:10C7900073B50191019C06466CB100252C462946D3
:10C7A00001A8FCF72BFE18B106EB440301349D8071
:10C7B0000135142DF3D13046346002B070BD000055
:10C7C0002DE9F04703888488103B8CB005460A2B7E
:10C7D0001FD8DFE803F0063F1E1E1E1E1E1E1E6031
:10C7E0004400314EB368DB43009371686846FCF740
:10C7F00028F9009901A8FFF7CBFF0DF108094FF0C8
:10C800000008019B984507D3132C13D90420FBF78C
:10C81000C7FB0CB0BDE8F08739F802AB0027013741
:10C82000514606EB8700FCF7DFFD1E2FF7D108F11C
:10C830000108E6E71D482146FCF7CDFD1C482146CE
:10C84000FCF7C9FDEB7B022BE3D11A482146FCF72C
:10C85000C2FDDEE715482146FCF7C6FDD9E7027A9E
:10C8600015483F2A4FEA1215214694BF00220122A3
:10C87000FFF781FF022D94BF002201220F482146BD
:10C88000FFF779FF012D0E4894BF002201222146B7
:10C89000FFF771FFBDE7037A002BBAD1427A064851
:10C8A000C2F3C0022146F3E7EC6A0020F46A0020DC
:10C8B000F06A0020F86A0020046B0020006B002062
:10C8C000FC6A002037B5002401902546214601A8C6
:10C8D000FCF794FD00B101350134142CF6D1284643
:10C8E00003B030BDFFF74CBF07B5064BDA680192C5
:10C8F000996801A8FCF7A5F80198FFF7E3FF03B0DA
:10C900005DF804FBEC6A002062DF70470B6903B13D
:10C9100018477047F0B50C4687B014220546002131
:10C9200001A800F0D3FC227852BBA388012B27D1A9
:10C93000A1792B78994223D194F808C0BDF81260F0
:10C94000BDF81400BDF81670122111FB0C412346EE
:10C950009446994216D1BCF1000F01D0ADF8167083
:10C960001AB1ADF81260ADF81400EB6843B16288FB
:10C97000ADF8062000228DF8042001A9284698472A
:10C9800007B0F0BDB3F80EE0BEF1020F04D0BEF167
:10C99000030F05D01233DCE7DF8A4FF0010CF9E713
:10C9A000DE8A188B0122F5E7F0B5184B87B002AA92
:10C9B00004460D4603F1100C1746186859681646D0
:10C9C00003C6083363453246F7D1ECB1E5B1AB6835
:10C9D000D3B121463846FFF797FF98B923788DF8F1
:10C9E00006300123ADF804304FF6FF7363802B68E7
:10C9F000E3606B682361AB68A0802081636101A85C
:10CA0000FEF7FCFF07B0F0BD0E20FBE784E8020054
:10CA100010B5034686B00846F9B1F3B149884FF620
:10CA2000FF72914219D09C888C4216D11988112925
:10CA300015D0392911D182887AB1598991420CD106
:10CA4000C26852B101218DF8041003F11001DB8995
:10CA50000391ADF8103001A9904706B010BDC3682E
:10CA6000002BFAD002218DF80410428001A99847CA
:10CA7000F3E7000010B504468AB030B342884FF6A1
:10CA8000FF739A4223D0C3880BB32022002102A84F
:10CA900000F01CFC0123ADF804308DF808300D4B7C
:10CAA00062886069CDE90434E388ADF81A304FF448
:10CAB0000033079301AB089302A940F20113ADF8CC
:10CAC0001830FFF7BBFB0AB010BD0E20FBE70820B3
:10CAD000F9E700BF0DC9020070B50E4688B01546D3
