:020000022000DC
:1060000000000120756302005D6302005F6302000F
:106010006163020063630200656302000000000028
:1060200000000000000000000000000067630200A4
:1060300069630200000000006B6302006D630200F0
:10604000498802006F630200558C02006F630200F2
:106050006F6302006F630200058B02006F63020032
:106060006F6302006F6302006F6302006F630200E0
:106070006F6302006F6302006F6302006F630200D0
:106080006F630200357902006F6302006F630200E4
:106090006F6302006F630200DDBA02006F630200EB
:1060A0006F6302006F6302006F6302006F630200A0
:1060B0006F6302006F630200000000000000000038
:1060C0006F6302006F6302006F6302006F63020080
:1060D0006F6302006F6302006F6302000000000044
:1060E00000000000000000000000000000000000B0
:1060F00000000000000000000000000000000000A0
:10610000000000000000000000000000000000008F
:10611000000000000000000000000000000000007F
:10612000000000000000000000000000000000006F
:10613000000000000000000000000000000000005F
:10614000000000000000000000000000000000004F
:10615000000000000000000000000000000000003F
:10616000000000000000000000000000000000002F
:10617000000000000000000000000000000000001F
:10618000000000000000000000000000000000000F
:1061900000000000000000000000000000000000FF
:1061A00000000000000000000000000000000000EF
:1061B00000000000000000000000000000000000DF
:1061C00000000000000000000000000000000000CF
:1061D00000000000000000000000000000000000BF
:1061E00000000000000000000000000000000000AF
:1061F000000000000000000000000000000000009F
:10620000354936480A1A02D0072291438D4634494F
:1062100034480A1A06D00722914381F309880222E2
:1062200082F3148830483149314A00F044F831484B
:106230003149324A00F03FF831483249324A00F0E1
:106240003AF832483249334A00F035F83248334997
:10625000334A00F030F833483349344A00F02BF821
:1062600033483449344A00F026F83448344900228F
:1062700000F02CF833483449002200F027F8334866
:106280003349091A082902DB002202604160314AC1
:1062900090471F481F49884205D00268043003B464
:1062A000904703BCF7E700208646EC46002000211B
:1062B000294A9047FEE7884207D0521A05D0037852
:1062C00001300B700131013AF9D17047884202D098
:1062D00002700130FAE770470000012000E0002062
:1062E0000000012000000120A0DA0200D82A0020CE
:1062F000782B0020D0630200D0630200E4C70200C4
:10630000A0DA0200D82A0020D82A0020E8C802001B
:10631000E8C80200E8C80200E8C80200E8C80200B5
:10632000E8C80200E8C80200E8C802009FDA0200DC
:1063300040DB0200782B0020782B0020782B0020F7
:106340009C3D00209C3D00209C3D00209C3D002069
:106350009C5D00209D630200899F0200FEE7FEE72E
:10636000FEE7FEE7FEE7FEE7FEE7FEE7FEE7FEE705
:1063700000F002B8FFF7FCBF0F484FF00701884359
:1063800085460E4880470E48016841F4700101605F
:10639000BFF34F8FBFF36F8FFFF732BF09480A4932
:1063A0000A4A884207D0521A05D0037801300B7090
:1063B0000131013AF9D17047000001204982020001
:1063C00088ED00E0E8C80200D82A0020D82A002082
:1063D0007047000007B5044B0093044A402300F0C7
:1063E00032F803B05DF804FBF1630200792B002062
:1063F0002DE9F84388461446B2B10F4B0F4E0325E2
:10640000002743F00109224608EB0701002003F0B2
:10641000A9FF0744241A48B933782BB14FF47A40C6
:10642000C847013D02D13570BDE8F88301233370C0
:10643000002CE8D1F8E700BFF0C80200782B00205C
:10644000704703F0C3BFF0B595B01D461646084629
:106450000C4601F021FE1A9B0D93CDE9086500253D
:106460002B46082205A920460A958DF82C500C953C
:1064700001F02FFE079B0293069B03939DF81430B7
:106480008DF8115003F00302012A1DD1BDF814202C
:10649000059DC3F3C203C2F383168DF81030B2001A
:1064A00008230EA9204601F014FEC5F3952508AB7C
:1064B0000093324602AB0EA9284600F089FB204625
:1064C00001F0EEFD15B0F0BD022AF8D1BDF816506E
:1064D000C3F3C203C5F389158DF810300827082DC2
:1064E0002E4628BF08263B4632460EA9204601F01C
:1064F000F0FDAD1B08AB02AA31460EA8374400F0F0
:10650000CBFB002DEBD1DAE708B5FFF79AFF044883
:10651000042100F0C7FA034B01225A7108BD00BFE5
:10652000D8C80200D82A0020037813F0040216D03D
:1065300003F00303012B03D0022B09D00120704785
:106540000A6800880232C0F3831002440A60F5E74B
:106550000B684288023303EB92130B60EEE71046A0
:10656000704700002DE9F04F87B000230446861CD9
:106570000DF107000F4615468DF8073001F06CF855
:10658000404A51683960936803F580735B1A9246FC
:1065900002F21C4702F5836902F21448B3421AD38F
:1065A0000020002D69D004F00F039B0143F0050388
:1065B00063F30F00DAF80430DAB203321E444AF80B
:1065C00022009DF80700CAF8046001F069F8012074
:1065D00007B0BDE8F08F0121384601F088FA48463F
:1065E00001F09DFA404601F09AFADAF808000290AC
:1065F000C0B203300AEB800002A9FFF795FF029BAF
:1066000030BBDAB20AEB8202D16803919A1C0133E3
:10661000DBB20AEB83030292D3F80CB001F0030360
:10662000012B22D0022B15D08346404601F07AFA86
:1066300010B1029BCAF808305946384601F057FAA3
:10664000DAF80830DAF8042003F580739B1AA5E71E
:10665000D8B2CEE7BDF80E30C3F3891303334FEA47
:106660001B4B02EB93030293DFE7BDF80C30C3F33F
:1066700083134FEA1B4B1344F5E7A40544F00600CF
:1066800098E700BF8C2C0020064B074810B501226C
:106690001A7001F0BAFC044610B9044801F03AFD42
:1066A000204610BD8C2C002044C802002CC90200DA
:1066B00030B50A4C71B10A4A0A49121BD2080023AC
:1066C0009A4201D1002030BD31F82350854202D0DA
:1066D0000133F5E7034654F83300F4E758C80200E5
:1066E000D8C80200D82A0020094B013903EBC000AA
:1066F000032909D8DFE801F00A02040604207047E4
:106700000079704740797047002070470220704739
:1067100058C80200034BD3E90130C31A584258410C
:10672000704700BF8C2C00202DE9F04186B0FFF7A8
:10673000F1FF0546002840F0E680744CC4F81804C8
:10674000BFF34F8FA3680293DBB2033304EB8300E4
:1067500002A9FFF7E9FE029B18B1D4F81824002A19
:1067600055D0DAB2991C013304EB8202DBB204EBA0
:106770008303D268DB68049302F00303022B0392C5
:1067800002914FD1BDF80E306148C3F38917502FE5
:106790003E4628BF502666F38F1306F10801ADF878
:1067A0000E3001F04AFC0546002800F0978001F009
:1067B00073FC002303A90822284601F080FC0299FB
:1067C000CB43DBB20133C9B20331B6EB830F4FEADF
:1067D000830804EB810122D908234246A6EB080670
:1067E000284601F06CFCF6B24A4908F1080332462B
:1067F000284601F064FC029B033703EB97070297DE
:10680000D4F81834002B41D1D4F8106451E06268F8
:106810009A4299D8A260284606B0BDE8F0810823C4
:106820003246E5E7012B59D1BDF80C303848C3F3A7
:106830008311062928BF062161F3891302318900DB
:10684000ADF80C3001F0F9FB0546002846D001F008
:1068500023FC0023082203A9284601F030FC00266F
:10686000BDF80C20C2F38312B300964203F1080373
:10687000C6D202994A1CC9B20331029204EB8101CB
:106880000422284601F01BFC0136E9E7284601F006
:1068900007FCFFF73FFF80F00100C5B2BBE7F368DC
:1068A0005B7923B1336829461B6830469847F36803
:1068B0001E68002EF3D1284601F0F2FB0DF107000F
:1068C0008DF8076000F0C8FED4F818340BB9029BAD
:1068D000A3609DF8070000F0E3FEDAE7D4F8104467
:1068E00054B90D4B0D480E49C01AC008000440F0C1
:1068F000020000F05DF8CCE7236820469B689847CB
:10690000E3681C68ECE7002585E700BF8C2C0020BD
:1069100044C80200982C002058C8020080C8020019
:1069200014C902002DE9F34704460E46924601A918
:10693000012218469946FFF715FE1B4F10B3019D23
:106940004FF00008AA1CC84508EB020123D11748E4
:10695000002101F09DF880F31000000440EA14408B
:10696000E4006B1C04F03804DBB2EDB244F0010427
:1069700007EB8303033544EA881444EA8624D8608D
:1069800047F825403B781BB1FFF7CEFE0028FBD12E
:1069900002B0BDE8F087C9B207EB81015AF8283090
:1069A000CB6008F10108CEE78C2C0020A830002035
:1069B00000231A46FFF7B6BF07B50123019201AACB
:1069C000FFF7B0FF03B05DF804FB07B5CDE9002386
:1069D00002236A46FFF7A6FF03B05DF804FB1FB56C
:1069E000CDE90123069B039301AA0323FFF79AFF36
:1069F00005B05DF804FB00002DE9F7430446D01C08
:106A00008846164601A900228008FFF7ABFD234DFA
:106A100080B3019FB81C0190C0B2C0F58073B6EB83
:106A2000830F00F103004FEA830905EB80002AD8A9
:106A30003246414605F00CFB1948002101F028F8C8
:106A400080F310007B1CDBB2FFB2220C05EB83034A
:106A5000033742EA0040E400D86004F0380455F8F7
:106A6000273044F0020444EA865203F47C131A43AC
:106A700045F827202B781BB1FFF756FE0028FBD1E5
:106A800003B0BDE8F0834A46414605F0E1FAA6EBC3
:106A9000090208EB090105F10C00CBE78C2C002062
:106AA000A830002030B50F49D1F81024034600204B
:106AB000144634B9DC6820714AB9C1F81034226038
:106AC00030BDE4682579854206D02468F1E7D268B4
:106AD000116821601360F3E701300A28E8D14FF014
:106AE000FF30EDE78C2C0020084A38B50123D2F89E
:106AF000104413701D4604B938BDE3685D71236806
:106B000020465B689847E3681C68F4E78C2C0020FB
:106B100007B503460846197A052911D05B7A2BB1CF
:106B2000094A0A49019001F060F80198084901906A
:106B300001F05BF8019803B05DF804EB01F04AB88E
:106B4000002AF8D0F2E700BF38C902003CD10200A9
:106B500003D1020030B5C38885B004460D4633B179
:106B6000144A00921449154A284601F03EF8217A49
:106B700005291DD0637A4BB1A088FFF7B5FD104BF6
:106B8000104953F82020284601F02FF8227A0E4BA6
:106B9000A08853F8222003920021FFF789FD039A71
:106BA0000A490346284605B0BDE8304001F01DB84B
:106BB00005B030BD38C9020045C902003DC9020018
:106BC000C0C902003CD10200E4C902005DC9020054
:106BD0002DE9F04385B01F460C9D002395F80C90DD
:106BE0002B7306460C46904629463846FFF7B2FFFF
:106BF000B8F1060F09D8DFE808F00412181F28338F
:106C000040003146284600F0F0FF00222946384671
:106C1000FFF77EFF85F80C9005B0BDE8F083226891
:106C20003146284600F0E1FFEFE7D4E90023314682
:106C3000284600F0DAFFE8E7A36800933146D4E97C
:106C40000023284600F0D1FFDFE7E3680193A36843
:106C500000933146D4E90023284600F0C6FFD4E76C
:106C600023690293E3680193A36800933146D4E952
:106C70000023284600F0B9FFC7E76369039323693F
:106C80000293E3680193A36800933146D4E900239B
:106C9000284600F0AAFFB8E708292DE9F74F8046FB
:106CA0000E4617461C463CD8002593F80C901D73E1
:106CB00019461046FFF74EFFDFF888A0DFF888B0CE
:106CC000AE4231D918F805205946204600F08DFF14
:106CD0000135082DF4D11949194DDFF870A020466F
:106CE00000F083FF4FF0000B5E4522D918F80B200F
:106CF0007E2A05D81046019205F056F9019A00B98E
:106D00002E225146204600F070FF0BF1010BBBF123
:106D1000080FE9D1012221463846FFF7F9FE84F831
:106D20000C9003B0BDE8F08F5146204600F05DFFA7
:106D3000CEE72946204600F058FFE6E771C9020079
:106D40006FC902006DC9020067C90200B3D002001A
:106D5000C30710B507D4F023054A4008145C23404C
:106D60001943115410BD0901C9B20F23F4E700BF44
:106D70007831002030B5094B1C78094B1968002385
:106D80009C4202DC0022104630BD11F8335085428F
:106D900001EBC302F7D00133F2E700BF443100201A
:106DA0008831002013B504460191FFF7E3FF38B1A5
:106DB00043682BB10199204602B0BDE81040184746
:106DC00002B010BD034B044819680022490800F0C6
:106DD0005CBA00BF483100205031002010B5C0B26D
:106DE000FFF7C8FF0446007801F082FE63785A1E60
:106DF00053425341834208D1044BD3E90023134348
:106E000003D1BDE81040FFF7DDBF10BD7031002099
:106E100037B54308354AD35CC2074CBF1B0903F0A2
:106E20000F0304460D46042B35D8DFE803F0032595
:106E30002C383C0079B30121FFF78AFF00230DF1C4
:106E400007008DF8073000F007FC0120A4F12003B3
:106E5000C4F12001264A20FA01F100FA03F30B43A2
:106E6000A040D2E9004120430B43C2E900039DF852
:106E7000070000F015FC0EE0002918BF0221204693
:106E8000FFF766FF07E041B10321FFF761FF012132
:106E90002046FFF787FF03B030BD0121EFE700294F
:106EA000F9D10421EBE709B10321E8E7FFF750FF2F
:106EB00029462046FFF776FF0DF107008DF80750B1
:106EC00000F0CAFB0120A4F12003C4F12001084A0C
:106ED00020FA01F100FA03F30B43A040D2E900418C
:106EE00024EA000021EA0303BFE700BF7831002055
:106EF000703100202DE9F041124E134F00243378F9
:106F0000A34208DC114BD3E90023134318D0BDE89A
:106F1000F041FFF757BF3D6805EBC40815F8340092
:106F200001F0E6FD98F801305A1E53425341181AF9
:106F30004142414115F83400FFF76AFF0134DEE7B2
:106F4000BDE8F081443100208831002070310020FC
:106F5000092AF7B505460C4616463CD901F008FD4E
:106F6000D8B11E4B1E481D601E4B1F4F1C701F4B7F
:106F7000002110221E6005F094F81D4B0020002116
:106F8000C3E90001013CE4B20326FF2C0BD1194AEE
:106F90001948002100F06EF903E001F0ABFC002875
:106FA000DFD003B0F0BD9DF8063015F834008DF841
:106FB000046005EBC40223F007038DF8063001A935
:106FC00093788DF805303A4601F0DCFC013CE4B2E0
:106FD0000028DAD0E5E70720E3E700BF883100208A
:106FE0007831002044310020DD6D0200483100205E
:106FF00070310020F56E020004CA020070B5084D21
:10700000084E00242B789C4201D3002070BD3368C9
:10701000012113F8340001F027FD0134F2E700BF2D
:1070200044310020883100201FB50021039001AABF
:1070300044F20100CDE9011100F004F805B05DF85B
:1070400004FB000010B572B6FFF74EFDFFF76CFBB6
:107050000028FBD1104B114C1149E41AE408240418
:1070600044F00100FFF7A4FC0E4B1B68DB0700D5C2
:1070700000BE0D4944F00200FFF79AFCBFF34F8FAA
:107080000A490B4BCA6802F4E0621343CB60BFF3BA
:107090004F8F00BFFDE700BF58C8020080C8020044
:1070A00008CA0200F0ED00E014CA020000ED00E0A2
:1070B0000400FA0549B152B1531E1A4007D182604B
:1070C00001608380C260104670470E20704709201F
:1070D000704710B58468C2688388121B934208D336
:1070E000C26813400268D154C3680133C3600020F2
:1070F00010BD0420FCE78268C3689A420AD0826807
:10710000838813400268D35C0B708368013383600B
:107110000020704705207047D0E90223D1E9020121
:10712000994208BF90422CBF012000207047000008
:1071300008B50B4800F0E7FB0A4B0B49D3E90023E5
:107140001218D1E9000143F100038B4208BF8242CB
:1071500003D212F1807243F100031046194608BDB4
:10716000E02A0020903100200832002037B5054683
:107170000C460A4801A900F0FAFB60B105704460B2
:1071800001A9064800F01DFC18B1054800F0C0FB3D
:10719000002003B030BD0420FBE700BFF431002025
:1071A000E02A002038B5184B1B78044613B9002597
:1071B000284638BD0028FAD0037F03F0FF05002BD6
:1071C000F5D0FFF7B5FFD4E90223994208BF9042FA
:1071D00014D3236903B92377D4E90530984721698B
:1071E0000029E4D0237F03F0FF05002BDFD0D4E992
:1071F0000223521843F10003C4E902230348214645
:1072000000F0A7FFD4E700BF9831002030CA020089
:1072100013B5114B114918680190082310485822E2
:1072200000F092FB044698B90E4A0F4801A900F0FD
:107230005BFA044660B90C48012100F047FB0123CA
:107240000A4A0948194600F0A9FA094B01221A70A6
:10725000204602B010BD00BF2CCA02009C310020A5
:10726000F4310020D5720200E02A0020FFFF7F00E9
:10727000983100203AB103685A614A1E5142514187
:107280001961002070470720704738B5037F044616
:107290000D4683B98261FFF74BFF2369401941F125
:1072A0000001C4E9020103B1256121460020BDE8C7
:1072B0003840FFF75BBF002038BD0023014603774D
:1072C0000120FFF753BF0000014800F01CBB00BFC6
:1072D000E02A00202DE9F04F85B0804600F0FEFA4C
:1072E00040B15A4AD2E9003113F1807341F10001F3
:1072F000C2E900310021404600F0FFFA38B1544E97
:10730000336823B13068FFF74DFF0023336001215C
:10731000404600F0F2FA20B1FFF70AFF4D4BC3E9F7
:1073200000014D484A4F4D4EDFF8389103A900F057
:1073300058FB002845D1DFF82491454EDFF828A1FD
:10734000484600F01CFF3368002875D07BB13368D5
:10735000D0E90201D3E90223994208BF90422DD21D
:1073600033681B7F1BB13168484600F0F2FE484687
:1073700000F0FFFED0E902B307460193FFF7D8FE05
:10738000019BBBEB000463EB0105012C75F10003CD
:1073900045DBB4F5350F40D3FFF796FF304A024482
:1073A0004FF496030021504600F018FA00283ED111
:1073B000336813B9404600F0E9F9376005B0BDE81D
:1073C000F08F0378012B1DD0022B09D14FF0000A5A
:1073D000304600F0CEFE002834D080F81CA0F7E73D
:1073E0003BB941680B7F23B901230B77304600F08E
:1073F000B0FE03A9184800F01FFB03A9164800F0CF
:10740000F0FA96E741683B68994202D100233B605D
:10741000EFE7304600F0B6FEEBE7BA68C0E70021C0
:10742000504600F060FA3846FFF7BCFE01E00D2838
:10743000F9D00023336083E7002BBFD1404600F032
:10744000A9F9BBE7012389F80030D2E79031002089
:107450001032002008320020F431002030CA02002F
:10746000FFFFB40098310020E02A00200648074AB8
:1074700003780749D35C012213B1043002F03AB813
:107480000C3001F003BE00BFE82A00208432002047
:107490003C3200200648074A03780749D35C0122A2
:1074A00013B1043001F0D2BF0C3001F09DBD00BF1C
:1074B000E82A0020843200203D32002037B50578CC
:1074C000012D0BD0022D2ED065B91E491E48FFF7A5
:1074D00012FE002832D1FFF7DDFF03E0037A1BB96B
:1074E000FFF7C4FF03B030BD4368184C197820463D
:1074F000FFF7EFFD80B18DF800500190144B684606
:107500001B689847A168E368A2885B1A9A42E7D291
:10751000104B01221A70E5E7A268E3689A42F1D0A5
:107520008DF80000EAE7C3688DF800500193FFF77B
:107530009DFF074B68461B689847D3E703238DF8E8
:107540000030F6E73D3200202C32002018320020B7
:107550001432002028320020F0B51F46234B89B09A
:1075600004461A600D4600293DD08A8820480968E3
:10757000FFF7A0FD002834D1AA89A9681D48FFF7AC
:1075800099FD00282DD11C4E0FCE6D460FC596E8F3
:107590000F0085E80F0063690693237C174A18489B
:1075A0008DF81C70003B18BF01238DF81430637CEC
:1075B000002B14BF0E2300238DF81530E3680293CF
:1075C000A36803932368019369466368009301F0FD
:1075D000C1F830B90B4B18702368013301D0FFF7A5
:1075E00045FF09B0F0BD0720FBE700BF14320020C3
:1075F000183200202C3200203CCA0200BD74020068
:10760000E82A00202832002010B501460E48FFF776
:1076100060FD0446A8B90D480D4A0378D35C63B1F8
:10762000043001F05BFF60B90A490748FFF763FDCA
:1076300038B9BDE81040FFF72DBF0C3001F01AFD3E
:10764000F1E7204610BD00BF2C320020E82A0020C0
:10765000843200203D32002070B5EFF3108672B600
:107660000C4A946801239CB993600B4B0B4DD3F8E3
:10767000801029401160C3F88050D3F88410516005
:107680004FF0FF32C3F88420047006B962B670BDB3
:107690000370FAE74032002000E100E0FC06FFBD85
:1076A000084B9A6810B55AB150B9EFF3108172B611
:1076B000054A1C6814605C685460986001B962B641
:1076C00010BD00BF4032002000E100E0435882B00E
:1076D0003BB10023435043580193019B012002B06A
:1076E00070471846FBE70000F8B5204B4479204D61
:1076F00043F824201F4A204B05EBC4049B1A22792F
:10770000DB081B0432B143F002001C49FFF750F9BB
:107710000820F8BD02680C88C2F8084590F904609A
:107720008A7804795201002ED2B219DB14498F19DC
:1077300087F800230122760904F01F0402FA04F4FA
:1077400041F82640427905EBC201012445F8320098
:107750000C7143F003000B49FFF72AF90020D8E72A
:10776000094904F00F040A55ECE700BF5432002029
:107770004C32002058C8020090C802005CCA0200C7
:1077800000E100E07ECA020014ED00E0036801227F
:107790001A607047036801225A60704773B501F19F
:1077A0005005AD000068ADB24FF480348C40002627
:1077B000C0F80843C0F84843465101F5A87145593F
:1077C000019522F07F42019D40F82120C0F84443FA
:1077D0000BB1C0F8044302B070BD00002DE9F74FB3
:1077E0000D4622F07F4402684FF4803705F15006C1
:1077F0008F408046B60002EB8500C2F84873B6B2EF
:10780000C2F80873D2F8041599464FF0000BD0F86F
:107810004035C0F8401542F806B05B1A9259009204
:1078200023F07F43012B009A4FEA850A0CD1264BA7
:107830004FF4806043F001039847D8F8003043F8D4
:1078400006B09B590193019BD8F80010D1F804654C
:10785000C1F84473A31B23F07F43012B1CD11A4BA7
:1078600005F5A875013443F0010341F825404FF4B4
:1078700080609847D8F80030D3F804359E4209D18B
:10788000D8F800300020C3F84473C3F8047303B081
:10789000BDE8F08F0D20FAE78A44C9F1FF13CAF85A
:1078A0004045D1F80405221A013A22F07F4203F53F
:1078B0007F439342EED3002AE2D10134CAF8404517
:1078C000D1F804359842DAE790CA02000368022230
:1078D000C3F8442309B1C3F80423704700684FF488
:1078E0008271FFF7F3BE4FF4803303FA01F10368AE
:1078F000C3F84813C3F80813704750318900006873
:1079000089B2FFF7E3BE0368D3F8040570470000AF
:1079100090F90430002B09DB5A09012103F01F0301
:1079200001FA03F34032024941F82230704700BFA8
:1079300000E100E0024B034A1B681068184700BFD3
:10794000543200204C32002010B561B1B2FBF3F488
:1079500003FB1424A4B244B9C0E9001484608281FA
:10796000C381204610BD0E20FCE70920FAE737B599
:1079700050E8013F9DB2C48925448489A54228BFAF
:107980002D1B0489A54202BFBFF32F8F002207E001
:10799000C5EA030540E80154002CE9D14FF001028B
:1079A0008DF803200193019B9DF803200B6002F0EA
:1079B000FF0322B10B880068184403B030BD18469D
:1079C000FBE70A884B889A4209D150E8012FC2EAA6
:1079D000024240E80123002BF7D10120704700202C
:1079E000704737B550E8023F1FFAA3F5C488A54297
:1079F00002BFBFF32F8F00220DE0C4892544848984
:107A0000A54228BF2D1BC3EA054540E80254002CBF
:107A1000E8D14FF001028DF803200193019B9DF8FE
:107A200003200B6002F0FF0322B14B88006818446A
:107A300003B030BD1846FBE70A884B889A4209D14B
:107A400050E8022FC2EA224240E80223002BF7D17D
:107A5000012070470020704701F01F024B090121EF
:107A6000914000EB830000F01EB801F01F030122DB
:107A70009A404B0900EB8300D14300F02CB84B092E
:107A800001F01F0150F82300C84000F001007047CA
:107A900010B5034653E8000F0A4643E8002494F06B
:107AA000000FF7D110BD10B5034653E8002F42EA8E
:107AB000010043E8000494F0000FF6D110BD10B5AA
:107AC000034653E8000F00EA010243E8002494F063
:107AD000000FF6D110BD10B5034653E8002F02EA9F
:107AE000010043E8000494F0000FF6D110BD10B57A
:107AF000034653E8002F02EB010043E8000494F032
:107B0000000FF6D110BD10B5034653E8002FA2EBCD
:107B1000010043E8000494F0000FF6D110BD0121EC
:107B2000FFF7C1BF0021FFF7CABF10B590B1D0E980
:107B3000012301689B1ADBB20A60013BDBB2FF2B19
:107B4000026802D10020107110BD11684C1C146035
:107B50000B70F2E70E20F7E737B5054600240DF16C
:107B600007008DF80740FFF777FD2A686B681168FA
:107B700099420ED9481E106011F8014CEB68298A11
:107B800001FB0434AB6811791B1ADBB2994238BF90
:107B900013719DF80700FFF783FD204603B030BD49
:107BA00037B5054600230DF107000C468DF8073068
:107BB000FFF752FD2A681368591C1160E968641ABE
:107BC000298AB4FBF1F41C709DF80700FFF768FDEB
:107BD00003B030BD826810B504462AB1436901681C
:107BE000006998470023A36010BD0EB403B5039944
:107BF00021B104AB01AA019300F076F802B05DF860
:107C000004EB03B070470A2938B504460D4602D18B
:107C10000D21FFF7F8FFA3682268591CA160D55415
:107C2000D4E901329A4204D32046BDE83840FFF738
:107C3000D1BF38BD2DE9F84F9846DDE90A43154616
:107C400082460F460A464FF00109AA420FD2C145AB
:107C500038BFC14613F0010B01D16CB900240126D5
:107C6000B8F1010F1BD908F1FF386E43F8E709F1AD
:107C70000109B2FBF5F2E8E79B070ED5B8F1000F5A
:107C80000CBF30262026A145E9D2013C31465046A2
:107C9000FFF7B9FF002CF6D1E0E72026F3E7B7FBAA
:107CA000F6F39D42E1D9DFF83C80B7FBF6F350468E
:107CB00018F8031006FB1377FFF7A5FF3346AB4216
:107CC000B6FBF5F6F1D2BBF1000F02D00CB1A14525
:107CD00001D3BDE8F88F20215046013CFFF793FF08
:107CE000F4E700BF96CA02002DE9F74F0546174694
:107CF0008846002900F0428118F8011B49B92B7B06
:107D0000002B00F03B81284603B0BDE8F04FFFF7A1
:107D100061BF252940F0B780002698F800302D2B50
:107D2000424608F1010823D0302B24D02B2B25D03C
:107D300000242A2B02F1010123D13B681A1D1B6884
:107D40003A601C440A4613782E2B26D101324FF09C
:107D5000000A104610F8011BA1F1300CBCF1090F0C
:107D60001DD80A2303FB0A13A3F1300A0246F0E7E9
:107D700046F00106D1E746F00206CEE746F00406DB
:107D8000CBE711F8013CA3F130000928DBD80A2227
:107D900002FB0434303C0A46CBE74FF0000A12F8ED
:107DA000011B01F0FB0068289046F8D0782909D81B
:107DB0006F290CD8632962D022D8252963D058298D
:107DC00000F0888098F80030002B95D197E7703943
:107DD0000829F7D801A353F821F000BF577F02000C
:107DE000C57D0200C57D0200E57E0200C57D020062
:107DF000C37E0200C57D0200C57D0200D57E020063
:107E0000642901D06929DDD13A68D2F80090111DAA
:107E100089EAE9723960A2EBE9724FF0010B092A95
:107E200035DCD34538BFD3462CB1B9F1000F01DBA7
:107E3000720700D5013CB30702D5BAF1000F03D099
:107E4000F00701D44CBB0024B9F1000F2DDAC9F1C1
:107E500000092D212846FFF7D6FE06F00302022A6C
:107E600004D1BAF1000F01D11CBB0024CDE90046BA
:107E700053460A2249462846FFF7DCFEA2E73B6844
:107E80001A1D19783A602846FFF7BDFE9AE70A23C3
:107E90000BF1010BB2FBF3F2C1E7A345D4D22021D1
:107EA0002846013CFFF7AFFECCE77107D5D52B2163
:107EB000D0E7A345DAD230212846013CFFF7A3FEE4
:107EC000D2E73968CDE900460A1D3A6053460A22D6
:107ED0000968D0E739680A1D3A60CDE90046534683
:107EE0001022F5E73B681A1D3A6016F00106D3F838
:107EF000009028D1B9F1000F03D0484604F026F9CC
:107F00000646B44200D904BB09F1FF3919F8011F34
:107F100000293FF457AF2846FFF775FEF6E72846DD
:107F20000136FFF770FE19F806100029F7D1A642B6
:107F3000BFF448AF002C3FF445AF20212846013C58
:107F4000FFF761FEF3E70026EDE720212846013C1C
:107F5000FFF759FED5E73B681A1D3A6030212846E5
:107F60001C68FFF750FE78212846FFF74CFE0022E0
:107F70000823CDE90032214610227CE703B0BDE89A
:107F8000F08F00BF2DE9F84FB0F806A04579D2F880
:107F900000B09DF828900AFB05F5043D88460BEBE0
:107FA0000301A94203F1040488BFA5EB030BB4FB52
:107FB000FAF607460AFB1644C2F800B04EB9AAEB1F
:107FC00004055D4528BF5D46BBF1000F04D1BDE847
:107FD000F88F3F68013EF1E7043408EB06003C44AB
:107FE0002A46B9F1000F0DD02146ABEB050B04F08A
:107FF0002FF8DA452E443F6855464FF0000428BF5D
:108000005D46E1E701462046EFE7FFF78EBDF8B594
:1080100046790146721E0546002393422D6803D31C
:108020000024A64202D8F8BD0133F6E70F682846BF
:10803000FFF7B6FD01343946F3E72DE9F843068A28
:10804000CD1C0746FFF788FD043E35440446B5FBCA
:10805000F6F5F0B14FF48073EDB28380C680013D38
:10806000076081464FF00008A84512D23846FFF756
:1080700073FD064648B163790133637108F1010865
:10808000C9F8000007608146EEE72046FFF7BFFF12
:1080900034462046BDE8F88301210430FFF727BDB0
:1080A00010B5012104460430FFF72DFD10F0FF0F3D
:1080B00004D12046BDE81040FFF7A9BF10BD1FB591
:1080C00003920022009203AAFFF75CFF05B05DF85F
:1080D00004FB1FB503920122009203AAFFF752FF8F
:1080E00005B05DF804FB0000064B10B500241C70C1
:1080F000054B1C60BFF35F8F0449054800F013F87F
:10810000204610BD6032002064320020B0CA020058
:1081100058320020836800225A60C3E904229A6022
:10812000DA601A6070470B684A684360934208BF80
:108130000023016008BF43607047436843B1026891
:10814000916852680B449342436004BF002343602C
:10815000704770B5446806460D46206818B1B3688C
:108160002946984718B923682B60256070BD24689C
:10817000F3E74368186808B102681A6070474368FB
:10818000186870474368186800B97047884203D17F
:1081900002681A600120704703460068F4E7000097
:1081A00010B50D49A1F59472914201D800200FE05D
:1081B0008C1AE30F03EBE4035B1002EBC30452F8E9
:1081C0003330834205D802D204F10802ECE760683C
:1081D00010BD2146E8E700BFBCCF020008B5FFF79D
:1081E000DFFF024B002808BF184608BD7FCE020003
:1081F00010B50446C0B2FFF707FA204610BD0000D4
:10820000044B1868421C04BF034B1878831F584264
:108210005841704730010010E00F00F0074B1B7809
:10822000062B09D1064B1B68C3F30313033B032B37
:1082300002D8044AD05C704700207047E00F00F07D
:10824000E80F00F0C4CF020008B5FFF7D9FF28B14E
:10825000834B844A1B68C3F304231360FFF7DEFFDC
:1082600010B1814B814A1A60FFF7CAFF28B1804BD9
:10827000804A1B68C3F342331360FFF7CFFF20B17E
:108280007D4AD36823F08073D360FFF7B9FF40B114
:108290004FF080430022C3F80C21C3F81021C3F82B
:1082A0003825FFF7BBFF10B1744B03221A60FFF7AC
:1082B000B5FF40B1724B05221A6001229A67002275
:1082C0009A603F225A606F4B1A68511C0BBF6E4B6D
:1082D0006E4B1A781B6802BF08331B68C3F3031385
:1082E000062A4DD1033B032B03D8694AD35C002BEC
:1082F00046D04FF08052674BD2F80414C3F82015D3
:10830000D2F80814C3F82415D2F80C14C3F82815B1
:10831000D2F81014C3F82C15D2F81414C3F8301581
:10832000D2F81814C3F83415D2F81C14C3F8401549
:10833000D2F82014C3F84415D2F82414C3F8481511
:10834000D2F82814C3F84C15D2F82C14C3F85015E1
:10835000D2F83014C3F85415D2F83414C3F86015A9
:10836000D2F83814C3F86415D2F83C14C3F8681571
:10837000D2F84014C3F86C15D2F84424C3F8702521
:10838000FFF73EFF28B1444B444A1B6803F04F03FC
:108390001360FFF735FF48B14FF08043D3F8002456
:1083A000D20744BF6FF00102C3F80024354B1B68AD
:1083B000062B0CD1354B1B68033B032B02D8384AE4
:1083C000D35C23B1374A136843F480631360364AA1
:1083D000D2F8883043F47003C2F88830BFF34F8F6F
:1083E000BFF36F8F4FF01023D3F80022002A03DB76
:1083F000D3F80432002B2FDA2C4B0122C3F80425CA
:10840000D3F80024002AFBD04FF010221521C2F827
:108410000012D3F80024002AFBD04FF010231522BD
:10842000C3F80422214B1A46D3F800140029FBD0CC
:108430000021C3F80415D2F80034002BFBD0BFF3A1
:108440004F8F19491A4BCA6802F4E0621343CB609C
:10845000BFF34F8F00BFFDE7164B174A1A6008BDE8
:10846000240300104035014074C007400DF0ADBA40
:10847000440200103C050040F0ED00E0A005004083
:108480001056004030010010E00F00F034010010E1
:10849000BCCF020000C0004058020010E40E0040B3
:1084A000C0CF02003C17004000ED00E000E00140BA
:1084B0000400FA05FC2A00200090D003054A4FF082
:1084C000A043105CD3F8043523FA00F0C04300F059
:1084D00001007047CACF0200044B1A5C012393408D
:1084E0004FF0A042C2F80C35704700BFCACF02005F
:1084F000044B1A5C012393404FF0A042C2F80835A8
:10850000704700BFCACF020008B50020FFF7F0FF98
:10851000BDE808400120FFF7EBBF08B50020FFF7DA
:10852000DBFFBDE808400120FFF7D6BF074A4FF048
:10853000A041105CD1F804350122824022EA0300F8
:108540001340C1F80805C1F80C357047CACF0200C6
:10855000054A4FF0A043105CD3F8103523FA00F021
:10856000C04300F001007047C8CF0200172805D0B3
:1085700018280CBF01204FF0FF30704700207047D3
:10858000C20708B5014608D54FF0A0430322C3F83F
:108590007C27C3F81427FFF7B7FF8B0741BF4FF0C5
:1085A000A0430C22C3F85C27C3F8602708BD000075
:1085B00038B5074C051E04F1080318BF1C46236894
:1085C0002BB11A6822605B6828469847F7E738BDE8
:1085D0007032002020B9054B01225A70FFF7E8BF26
:1085E000012802D1014A9070F8E7704768320020F4
:1085F00020B9034B01225A70FFF7DABF704700BF62
:108600006832002038B50E4C2378B3B90D4863604A
:10861000A3602361E36000F0E5F8054603F044FA47
:1086200008B900F0EBF801232370074BD3F80034AE
:108630000BB10123A370284638BD8525F5E700BF9F
:1086400068320020D58502000000014037B50D4C8E
:1086500000230DF107008DF80730FEF7FDFFE368FA
:10866000013BE360E36833B9074BD3F8005415B915
:1086700000F0D6F8A5709DF80700FFF711F803B0D9
:1086800030BD00BF6832002000000140012813B552
:108690000CD0032820D038B9124B0122C3F8802017
:1086A000BFF34F8FBFF36F8F02B010BD0E4C00238E
:1086B0000DF107008DF80730FEF7CEFF23780BB9D8
:1086C000FFF7A0FFE3689DF807000133E360012393
:1086D000A370FEF7E5FFE7E700F090F8FFF7B6FFBD
:1086E000E2E700BF00E100E0683200201FB5037838
:1086F0008DF800304368019383688DF80830C368B3
:10870000054A0393054B684653F8213052F821106F
:10871000984705B05DF804FB7C32002080320020D1
:108720001FB503788DF800304368019383688DF896
:108730000830C368054A0393054B684653F8213057
:1087400052F82110984705B05DF804FB7C320020F8
:1087500080320020F0B5194B90F800C091F81DE070
:1087600043F82C20164B16460A6943F82C20154B6B
:1087700003F80CE00C4607460FCC89B06D460FC5D8
:1087800094E80F0085E80F00CDF810C0BEF1000F8F
:1087900009D0002E0C4A694608BF3246381D00F049
:1087A00091FD09B0F0BD002E084A694608BF324667
:1087B00007F10C0000F062FBF3E700BF80320020FD
:1087C0007C32002084320020ED86020021870200E6
:1087D00000F18040002382B0036003680193019B95
:1087E00002B07047044A137923B9012110609180C7
:1087F000184670478520704788320020074B1A685A
:10880000D20704D4C02283F8002301221A604FF05B
:1088100080430122C3F81825704700BF00E100E043
:108820004FF0804208B50223C2F808334FF482703B
:10883000FFF7CEFF034B01211960D2F81834DB0398
:10884000FBD408BD0C000040124B1B6810B573B17F
:108850004FF48070FFF7BCFF4FF080430122C3F854
:1088600008230D4B587910B95A711B6898470B4B68
:108870001B6873B14FF48270FFF7AAFF4FF080437B
:108880000222C3F80823044BBDE810401B680120F6
:10889000184710BD0001004088320020040100404C
:1088A00000F1804000F5C040002382B003600368FF
:1088B0000193019B02B07047800000F1A040D0F806
:1088C000002722F44032C0F80027D0F8003743EAEE
:1088D0000141C0F800177047054B4FF0FF320728E1
:1088E00043F8202084BFC01880F84820704700BF9C
:1088F0009032002010B51A4C94F858306BBB4FF0F2
:10890000FF3222FA03F1C90748BFE11803F101035E
:1089100048BF81F83020202BF3D10021C8B2FFF7E7
:10892000DBFF01310C29F9D1042200210D4803F0AD
:10893000B8FB0D4BC02283F8062340221A604FF487
:10894000BE70FFF7ADFF094B4FF00042C3F80423A0
:10895000012384F85830002010BD0820FCE700BF38
:1089600090320020E432002000E100E0006000408E
:10897000034B93F85800003818BF0120704700BF20
:1089800090320020F0B5364D2C1894F93040002C70
:1089900064DA8C78C4F34004002C0BBF0823002356
:1089A0000C260826B34201D10420F0BD55F82370EF
:1089B00001373FD12E1845F8232086F8303014B9FE
:1089C000EA1882F848008A78540713D4D60733D5BA
:1089D000820002F1A042D2F8004724F00204C2F85B
:1089E0000047204EC20800F007070124BC40B75CD6
:1089F0003C43B4548A780C7812F0020225D09B00D4
:108A000003F1804303F5C0430202D3F8101521F4AB
:108A1000473121F44071C3F810152404D3F8101520
:108A200002F4F85204F4403422430A43C3F81025F8
:108A30000020BAE70133B5E74C7800F5E0724FF05B
:108A4000A046A40046F82240CBE7083B2B4493F80D
:108A5000501041EA841483F85040E9E70820A4E765
:108A600090320020E432002038B51F4C251895F9CB
:108A70003020072A16DD224492F848309B09032B48
:108A80000BD14FF0A043D3F81015C14001F0010104
:108A90000231BDE83840FFF70FBF012B0CBF0221A8
:108AA0000321F6E7D3B2072B1CD8930003F18043D0
:108AB00003F5C043D3F8100540F00100C3F81005DA
:108AC00002F14000800080B2FFF7EAFE51B195F953
:108AD000303054F823302BB1012303FA02F2034B58
:108AE000C3F8042338BD00BF90320020006000406E
:108AF0004FF0A043D3F8103523FA00F000F0010046
:108B0000704700002DE9F74F00244E4D01944FF4BB
:108B10008072012102F1804303F5C04390B21B68CB
:108B2000012B06D1D5F804330B4202D0FFF7B8FE73
:108B30000C430432B2F5907F4FEA4101EAD1424B37
:108B40001B68012B0CD14FF4BE70FFF7A9FE4FF04C
:108B5000A04344F00044D3F820250192C3F8202517
:108B600014F0FF0F1AD0394F00250126344210D0DF
:108B7000AB0003F1804303F5C043D3F81005D3F8ED
:108B8000101557F8253023B1C1F30141C0F304207B
:108B900098470135082D4FEA4606E7D1002C48DA00
:108BA0002A4D4FF0A0482A4E4FF00009012716F930
:108BB000013B5A1C31D0C3F3C20202A90A44DCB201
:108BC00012F8042C03F03F0A03F0070307FA03F33B
:108BD0001A4222D00AF5E073504658F82330C3F306
:108BE000014BBBF1020F0CBF03210221FFF764FE12
:108BF00007FA0AF3C8F8203505EB0A0393F9303079
:108C000055F823304BB1A109032904D0BBF1020F61
:108C100012D1012901D15046984709F10109B9F152
:108C2000040FC4D1D8F820350193C8F82035002BA3
:108C3000B9D103B0BDE8F08FBBF1030FEDD102292C
:108C4000E8E700BF006000407C61004090320020F7
:108C5000E0320020014B1B68184700BFEC320020B7
:108C60000E4B984237B50C4602D0002003B030BD01
:108C700000230DF107008DF80730FEF7EDFC084BDF
:108C80001D7915B901221C601A719DF80700FEF7C5
:108C900007FD002DE9D01120E8E700BF00200040CB
:108CA000EC3200200023435082B043580193019BD3
:108CB00002B070470A4610B54FF48E71FFF7F2FF0D
:108CC000136A9168C95C136A01331362C0F81C15FA
:108CD00010BD024608B500684FF49271FFF7E2FF3D
:108CE0004FF484711068FFF7DDFF136801221A60EA
:108CF00008BD8B690A4610B54FF4847123B9FFF79C
:108D0000D1FFD0F8183510BDFFF7CCFF536AD168FA
:108D1000D0F81805C854536A01335362F3E70000D2
:108D20001FB501238DF80030044BCDE90110D3E9C4
:108D300000126846904705B05DF804FBF43200204D
:108D400030B54C48D0F8043313F4007F85B00546A5
:108D50004DD0D0F82431002B49D04FF49271FFF759
:108D6000A1FF4FF40173C0F80833434B93F8292057
:108D70000AB9012242603F4902228DF80020D1F851
:108D80008024C1F8802403929A690292DA680192E1
:108D90000022C3E906226846D3E90012904735480D
:108DA000D0F81C315BB134494A690B6A9A420A46D1
:108DB0004AD991F82830002B46D1FFF77BFF2D4888
:108DC000D0F844318BB14FF4A271FFF76BFF2A4BFF
:108DD00093F829200AB1012202609A692AB100227F
:108DE000586AD9689A61FFF79BFF05B030BDD5F886
:108DF00004335B07D3D5D5F80831002BCFD01E4CF8
:108E00001C482146FFF775FF636AA2699A42234610
:108E1000C5D1E269E1684AB12369E3600023606A71
:108E2000A261E3616362FFF77BFFB8E794F8292052
:108E30000AB901226A600F4A4FF40170C2F80803B0
:108E40000022586A9A61EEE70A484FF48E71FFF7E4
:108E500029FF5369002BB2D0516902910023916818
:108E60008DF80030019153616846D2E900139847AC
:108E7000A5E700BF00200040F43200202DE9F843B0
:108E8000544B057991462C2202FB0532064692F896
:108E90002A200C469846002A40F098804E490068E7
:108EA000FFF7DEFE0746002840F092802168336815
:108EB000481C0BD04FF0A04001228A40C0F8082582
:108EC00001F5E0724FF0030C40F822C06068421CCC
:108ED0001FBF00F5E0724FF0A04C4FF0000E4CF8B1
:108EE00022E0A269C3F8242594F814C0627DBCF185
:108EF000010F4CEA0202C3F86C25C3F81405C3F84D
:108F00000C151DD1A1684A1C1FBF01F5E0724FF07E
:108F1000A0404FF0000C40F822C0E268501C0BD07B
:108F20004FF0A04C01209040CCF8080502F5E0700D
:108F30004FF0030E4CF820E0C3F80825C3F81015D5
:108F40002C236B4308EB0302C2F80490226948F813
:108F50000320B9F1000F21D03068247F4FF48E71C7
:108F6000FFF7A0FE4FF4A2713068FFF79BFE326856
:108F70001A4BC2F80433110B42F307326301002A83
:108F8000DBB21EDB1648841884F800330123520933
:108F900001F01F0103FA01F140F8221033680422A6
:108FA000C3F800252C2303FB05830022C3E9062216
:108FB00083F829205A61012283F82A203846BDE827
:108FC000F883084A01F00F015354E7E70827F5E753
:108FD0001127F3E7F4320020418D020080000200E7
:108FE00000E100E014ED00E02DE9F047204F90F89B
:108FF00004904FF02C0808FB097405466669002EA2
:1090000034D162610068A16026624FF48E7184F8E9
:109010002860FFF747FE2868012383602146FFF799
:1090200049FE6368A0468BB92868D4F814A0236A67
:109030009A4511D82A68D2F81C31002BFBD00123A5
:10904000D3602C2303FB097300225A613046BDE82C
:10905000F08794F828303BB9D0F81C31002BF8D0B9
:109060004146FFF727FEE2E70F26EAE71126EDE784
:10907000F43200200379044A2C2101FB03235869B0
:10908000003818BF01207047F43200202DE9F84362
:10909000394F05792C2303FB057306465C6824B120
:1090A00003684FF40170C3F808032C2303FB057316
:1090B000986950B1D86900283ED024B133684FF484
:1090C0000172C3F80423112433E09A61D960586215
:1090D000D8612C2303FB057393F829301BB910B911
:1090E0003046FFF7F6FD4FF02C0909FB0578306894
:1090F000D8F80430002B34D14FF4A271C146FFF7E9
:10910000D1FD3068D0F82431D0F80821D0F844419E
:10911000B2B90CB9002BF4D02C2202FB0575002249
:10912000AA6123BB2CBB95F8291033680122B1B189
:109130001A602046BDE8F8831961DA610120C8E7AA
:10914000002BE9D1002CE7D14946FFF7D2FDD8F832
:109150002430D8F818209A42D3D82346DCE75A6046
:10916000E7E74FF40173C0F804330024E1E7032478
:10917000DFE70F24DDE700BFF43200200023435077
:1091800082B043580193019B02B070471FB5012381
:109190008DF80030044BCDE90110D3E90012684688
:1091A000904705B05DF804FB203300207FB5434AAB
:1091B000D2F82461002E60D010464FF49271FFF770
:1091C000DDFF02238DF80030D2F88034C2F88034FD
:1091D0000393D2F83C350293394BDA6801920022AE
:1091E000C3E906226846D3E9001290473348D0F815
:1091F000443173B14FF4A271FFF7C0FF304B9A694D
:109200003AB10022C3E90622D968D0F83C05FFF73D
:10921000BDFF2A48D0F82031ABB14FF49071FFF771
:10922000ADFF0123C360264B5A6962B1D0F84C15DB
:109230000291002299688DF8002001915A616846D8
:10924000D3E9001290471D48D0F858319BB14FF434
:10925000AC71FFF793FF1A4B5A6962B1D0F84C1505
:109260000291002299688DF8002001915A616846A8
:10927000D3E90012904704B070BDD2F81031002B32
:10928000B4D04FF488711046FFF778FF0C4BD2F83A
:109290003C0599698842A9D1DC69D96864B1D2F8E2
:1092A000005225F02005C2F800521A699C61DA606C
:1092B000DE61FFF76BFF99E79C61FAE70020004051
:1092C000203300202DE9F8435B4B06799146242298
:1092D00002FB0632044692F820200D469846002AEA
:1092E00040F0A58055490068FFF7BAFC0746002802
:1092F00040F09F8029682368481C0BD04FF0A040A5
:1093000001228A40C0F8082501F5E0724FF0030CF5
:1093100040F822C06868421C1FBF00F5E0724FF0A1
:10932000A04C4FF0000E4CF822E0AA69C3F82425A7
:1093300095F814C06A7DBCF1010F4CEA0202C3F833
:109340006C25C3F80C15C3F814051DD1A9684A1C77
:109350001FBF01F5E0724FF0A0404FF0000C40F845
:1093600022C0EA68501C0BD04FF0A04C0120904066
:10937000CCF8080502F5E0704FF0030E4CF820E041
:10938000C3F80825C3F810152423734308EB030220
:10939000C2F804902A6948F80320B9F1000F30D0D0
:1093A00020682A7F4FF48871FFF7E8FE20684FF4A9
:1093B0009071FFF7E3FE20684FF49271FFF7DEFE35
:1093C00020684FF4A271FFF7D9FE4FF4AC7120680A
:1093D000FFF7D4FE23681A49C3F80413190B43F3AB
:1093E00007335201002BD2B21CDB1648C51885F892
:1093F000002301225B0901F01F0102FA01F140F88C
:10940000231023680822C3F80025242303FB0683C6
:109410000022C3E906225A61012283F8202038463F
:10942000BDE8F883084B01F00F015A54E9E708271B
:10943000F5E71127F3E700BF20330020AD910200CC
:109440001003420000E100E014ED00E001F0604391
:10945000B3F1005F2DE9F041064638D11E4B077984
:10946000242505FB073598466C69002C31D16A61CB
:109470000068A9604FF49071FFF780FE4FF4AC7163
:109480003068FFF77BFE33686A69A968C3F8441542
:10949000C3F8482501229A606A68AAB9D3F8202146
:1094A000D3F858411AB9002CF8D00F2407E0002C4B
:1094B000FBD10122DA60D3F85821002AFBD0242303
:1094C00003FB078700237B612046BDE8F081102461
:1094D000FAE71124F8E700BF203300200379044A9B
:1094E000242101FB03235869003818BF012070476D
:1094F00020330020F8B501F06043B3F1005F04466B
:109500000F465ED10379304D242101FB0351496898
:1095100021B100684FF40476C0F80863242000FBF2
:1095200003539E6956B1D869002839D021B1236808
:109530004FF40472C3F80423112030E09A61DF6015
:10954000DE6120684FF48871FFF718FE20684FF441
:10955000A271FFF713FE2368C3F83475C3F83825EA
:1095600016BB01221A602179242202FB01525268A3
:109570000ABBD3F81041D3F84421D3F82401144393
:1095800002D10028F5D02246242303FB01550023F5
:10959000984218BF03209A42AB6118BF0F20F8BD54
:1095A0001F61DA610126CCE7D3F8002242F02002E5
:1095B000C3F80022D7E74FF40472C3F80423002055
:1095C000EDE71020EBE700BF203300200220FEF77C
:1095D000ADBF00002DE9F04780460D46FEF7C6FFFF
:1095E0000128044610D8012D10D0022D30D05DB9CD
:1095F0001A48FDF762FE1A4B04EB440213449E78AE
:10960000184B1B5DB34219D0BDE8F087144D00EB39
:109610004002A918AE5C4A78470052B1DFF84C907E
:109620000E484A464FF48041FDF72FFE08B989F8ED
:1096300000803B192B449A780A4B1A55002EE3D030
:10964000094B1B68002BDFD03046BDE8F0471847B8
:1096500000EB4004024804446678EFE768330020DA
:10966000A8330020BD330020B8330020443300204D
:1096700000780221FFF7AEBF08B5074B1B783BB15E
:109680000020FEF735FFBDE808400120FEF730BF9F
:10969000BDE80840FEF738BF45330020F8B57B4CE5
:1096A000237805461BB100232370FFF7E5FF172D34
:1096B00000F28880DFE805F00C17174354657680C8
:1096C000888D888D959A9A9A9A9AC4C9D1D9E4E4DA
:1096D000FFF7D2FF6E48FDF7F0FD6E4B0022044607
:1096E0001A702046F8BD0020FEF7E8FEF8B1002011
:1096F000FEF7FEFE022D0CBF4FF4E1614FF47A61DC
:10970000644B1D704FF400404FF47A740025E0FB69
:1097100001454FF4FA6200232046294602F050FB2F
:1097200000220146BDE8F8405948FDF7AEBDFEF7FE
:10973000D3FE022D0CBFC8214FF4C871E0E7002012
:10974000FEF7BCFE40B10020FEF7D2FE4FF4487198
:10975000504B03221A70D5E7FEF7BEFEC821F7E78B
:109760000020FEF7ABFE38B10020FEF7C1FE4FF43B
:109770007A61484B0422EDE7FEF7AEFE4FF4C87164
:10978000F7E70020FEF79AFE48B10020FEF7B0FE92
:10979000404B05221A7040F6CD410022C2E7FEF789
:1097A0009BFEF5E70020FEF7C1FE3A4B06221A7039
:1097B000002240F26661B5E70020FEF78DFE354BD2
:1097C00007221A7000248CE701202070FEF7AEFEFD
:1097D000EEE701202070FEF7A9FE00224FF40051B1
:1097E000A0E7FEF79AFE2B4B0C22EAE72A482B4E05
:1097F000FDF763FDD5F1110504461CD0D8B9012D44
:1098000013D0C8235D434FF400474FF47A70002112
:109810004FF4FA620023C7FB050102F0D1FA224699
:1098200001461D48FDF731FD04460220FEF754FEB7
:109830000123337055E70220FEF75AFE0023F8E7B4
:10984000FFF71AFF134B1222BBE7FFF715FF0020AB
:10985000FEF742FE0F4B1322B3E7FFF70DFF012087
:10986000FEF73AFE0B4B1422ABE7FFF705FF002093
:10987000FEF732FE0120FEF72FFE064B1522A0E771
:10988000FEF74BFE034B1D709CE700BFB433002076
:1098900088330020BC3300204833002045330020AB
:1098A000044B1B68DB0703D5034B1878FFF7F6BEA4
:1098B000704700BFB0330020BC3300204FF0A043FE
:1098C0000028D3F8382722F44032C3F83827D3F8D9
:1098D000381714BF4FF4403200220A43C3F8382728
:1098E000D3F83C2722F44032C3F83C27D3F83C2776
:1098F00042F40032C3F83C2700207047012801D809
:10990000FEF726BE00207047044B1B6813F00103CE
:1099100001D0FFF7C3BE1846704700BFB033002028
:1099200038B51A4B18601A4B10F00204054619603E
:1099300016D0184B18480E221A700F22DA70022126
:1099400040F23332FDF704FB044648B9FDF756FBFD
:10995000044628B90146114A1148FDF78BFC04461C
:10996000EB0711D50120FEF70BFE6CB921460D4A1D
:109970000D48FDF77FFC044630B9BDE838400B4A7E
:109980000B480121FDF776BC204638BDB0330020DE
:10999000B8330020A8330020ECCF020071960200FB
:1099A00000D00200A198020004D00200CD95020070
:1099B000FCCF0200012811D8012A0AD101290FD1B8
:1099C00000F10E02D2B20D4B00EB40001A54002001
:1099D00070470129F7D0022904D049B10720704708
:1099E0000022F8E7054B00EB400018444270EEE718
:1099F000024B00EB400018448270E8E7A8330020D7
:109A0000012802D80120FFF759BF0620704708B58A
:109A1000012202210020FFF7CDFF08B1072810D155
:109A2000072202210120FFF7C5FF08B1072808D14E
:109A300000210A220846FFF7BDFF10B1072808BF22
:109A4000002008BD0388102B10B502D0112B1ED0AA
:109A500010BD1A4C2168B1B901220846FFF7AAFFD0
:109A600008B1072824D1072202210120FFF7A2FF15
:109A700008B107281CD1042202210020FFF79AFF19
:109A800008B1072814D1236801332360E0E70B4AAB
:109A90001368013B1360002BDAD1FFF7B8FF0028F1
:109AA000D6D0074B1B68002BD2D0BDE8104018471A
:109AB000034B1B68002BE6D09847E4E7C433002033
:109AC000C033002008B50020FFF79AFF08B1062830
:109AD00006D10120FFF794FF10B1062808BF00202F
:109AE00008BD00000D4B10B518600C4629B10120CF
:109AF000FFF704FF40B102232370094B1B6853B9E1
:109B0000BDE81040FFF783BFFFF7F8FE08B10B2355
:109B1000F2E72070F1E7002010BD00BFC033002045
:109B2000C433002076DF70477ADF70477CDF7047F0
:109B30007FDF70478FDF7047B1DF704733DF7047DB
:109B40007047FDF771BA000030B58BB004460021B4
:109B50001A2203A8ADF8061002F0A3FA144B0293E0
:109B6000214603A802F0D0FA124B13481349144CB3
:109B7000144DC01AC008000402AA40F00300FCF70C
:109B80001BFF02A802F0E2FA2388ADF806000DF1EF
:109B9000060202A9284601F0CBFE082806D01328A9
:109BA000EFD0052802D008B1FDF73EFA0BB030BD6A
:109BB0003320312058C8020080C8020008D00200BB
:109BC000102B0020142B002070B5114B114C4A882B
:109BD000E41A114B1B88E4089A4205464FEA0444F4
:109BE0000DD10A8840F677239A4208D18B880B4919
:109BF000033B9BB21A4644F00300FCF7E6FE2B88B9
:109C00006A88074944F00400BDE87040FCF7DDBEF7
:109C100058C8020080C80200102B00201AD0020091
:109C200036D0020008B50020FFF76EFE08B1FDF740
:109C3000FBF9FFF747FF08B1FDF7F6F9FFF77EFFE5
:109C400018B1BDE80840FDF7EFB908BD0388212B26
:109C500013B504463DD007D8112B2BD0132B4AD077
:109C6000102B0CD002B010BD522B4CD0562B01D073
:109C70003B2BF7D1A0881321FFF754FF15E0264BAB
:109C800026482749C01AC008000440F00300FCF72A
:109C90008FFE0720FFF738FE08B1FDF7C5F9214B0D
:109CA000A1882148198001F0C9FC0028DAD0FDF70D
:109CB000BBF9D7E7184B19481C49C01AC008000463
:109CC00040F00300FCF774FE164B4FF6FF721A804B
:109CD000C8E7114B11481649C01AC008000440F0EB
:109CE0000400FCF765FE0023A088ADF8043001A94C
:109CF000FFF720FFD9E70B4800231A46852100888B
:109D0000FFF716FFD1E7074800231A4619460088D7
:109D1000FFF712FFC9E700BF58C8020080C8020061
:109D20006FD00200102B00202838002079D00200CC
:109D300086D0020008B503784BB9054B3B21188843
:109D4000FFF7F0FE18B1BDE80840FDF76DB908BD9A
:109D5000102B0020072808B513D00A280DD004289E
:109D600019D10D4B13211888FFF7DCFE30F00803E2
:109D700011D0BDE80840FDF757B9BDE80840FFF72E
:109D800051BF054B1A884FF6FF739A4203D103481F
:109D900000F075FFEAE708BD102B0020DC3300203F
:109DA00008B548B103280BD10220FFF7ADFD38B14B
:109DB000BDE80840FDF738B9BDE80840FFF732BFFD
:109DC00008BDFDF731B94FF0A0430322C3F878274F
:109DD000C3F81827704700000D480378012B02D103
:109DE0000C48FFF7B1BE4FF0A043D3F80425D14390
:109DF00001F0804102F08042C3F80815C3F80C2539
:109E00004022C3F80825012303700348E9E700BF97
:109E10000B2B0020582B0020422B00200C480378ED
:109E200013B90C48FFF790BE4FF0A043D3F80425B8
:109E3000D14301F0804102F08042C3F80815C3F815
:109E40000C254022C3F80C25002303700248E9E7E3
:109E50000B2B00204B2B0020382B002010B5037853
:109E6000332B01D0302B1FD1441C164802F06EF961
:109E700014490246204602F0BDF818B9BDE810406A
:109E8000FFF7AABF104802F061F90F4902462046C9
:109E900002F0B0F818B9BDE81040FFF7BFBFBDE849
:109EA00010400A48FFF750BE09480A4B0A49C01A39
:109EB000C0080004BDE81040332240F00300FCF766
:109EC0007BBD00BF062B0020002B00209AD0020093
:109ED00080C8020058C80200A7D00200F8B5057873
:109EE00006464DBB194B1A4C1A491B4FE41AE4089D
:109EF000240444F004042046FCF75AFDB28A316978
:109F00002046FCF779FDB08A3A462B4699B2884242
:109F100013D8114802F01AF90F4982B22046FCF713
:109F20006BFD0D48FFF79AFF14230022013B9BB203
:109F300007F8012B002BF9D1F8BD31691944013222
:109F4000097802F8011C0133E0E700BF58C802009D
:109F500080C80200B6D00200C833002008B5084906
:109F6000084801F0D1F908B1FDF75EF80548F7217E
:109F700001F0DEF918B1BDE80840FDF755B808BD9D
:109F8000C99B02001038002080B59B4DB4B0FFF78C
:109F90001AFF0FCD09AC0FC495E80300974B984A00
:109FA00001934FF4807384E80300CDE90323029307
:109FB000944A072301A909A8FDF7CEFA08B1FDF7D5
:109FC00033F84FF480410020FCF75EFB08B1FDF749
:109FD0002BF8FCF799FAFDF71BF908B1FDF724F807
:109FE00089490320FFF79CFC08B1FDF71DF809A97A
:109FF0000020FFF777FD08B1FDF716F8FEF774F8BB
:10A0000008B1FDF711F801F011FD08B1FDF70CF8EA
:10A01000002309A90120099301F096FD08B1FDF77D
:10A0200003F809A801F060FE08B1FCF7FDFF112359
:10A0300076488DF8043002F089F8744982B201A89C
:10A04000FFF774FD08B1FCF7EFFF0021082209A813
:10A0500002F027F86E494FF0C87309A8CDE909133B
:10A06000FFF762FD08B1FCF7DFFFFFF777FF694BF1
:10A070006948099309A901F0CFFA08B1FCF7D4FFA8
:10A08000042200210DEB020002F00BF8634B644840
:10A09000019301A901F0D2FB08B1FCF7C5FFAC2286
:10A0A000002109A801F0FDFF02238DF824304FF4B0
:10A0B000A0635C4AADF826300123ADF870301D92E4
:10A0C0008DF8A030402244F25063CDE92B2356484E
:10A0D000564B329309A900F012FC08B1FCF7A4FF1B
:10A0E0005148012100F008FC1C22002109A801F0C0
:10A0F000D8FF00234FF4A032CDE90932ADF8323059
:10A100004FF4F0228DF83430494B0B920E9303221A
:10A11000484B8DF8302009A80F9300F0CDFE08B110
:10A12000FCF782FF4448454C01F044FF444B45494D
:10A13000E41AE408240444F003042046FCF738FC45
:10A140003948032100F05AFC08B1FCF76DFF3E4E80
:10A1500041F2883546F001064FF47A40B047013DA0
:10A16000FAD13A4B01AA03F110071868596815464D
:10A1700003C50833BB422A46F7D118689B88AB80D9
:10A18000334FDFF8D090DFF8D08028600023CDF87F
:10A190001A30CDF81E304FF4FA554FF47A40B047DC
:10A1A000013DFAD11A2229460AA8ADF8025001F061
:10A1B00078FF01A90AA8099701F0A6FF09AA494654
:10A1C0002046FCF7F9FB164D09A801F0BFFFB8F8CF
:10A1D0000030ADF802000DF1020209A9284601F095
:10A1E000A7FB0828D7D01328EED00528D3D0002805
:10A1F000D1D0FCF719FFCEE740D10200343800205F
:10A2000034390020419B0200559D0200E8D0020035
:10A2100010003C00439B020028380020DD9E020015
:10A22000142B00200C2B0020DC330020A19D020009
:10A23000359D0200C39D0200F4D0020080C80200D8
:10A2400058C8020006D1020080D1020058D1020095
:10A25000332030202FD10200102B00200369C16869
:10A260008B429DBF8268D21802F1FF3203F1FF33A7
:10A2700094BF501A581A70472DE9F843D0E9029458
:10A280000546A9EB04084068904520440F46144455
:10A2900004D901F0DDFEEC60BDE8F8834246A4EB92
:10A2A000090401F0D5FE6868224607EB0801F0E7D3
:10A2B0002DE9F843C5680646894617464FF0000861
:10A2C0003469B3687068A54228BFE418013C621B7A
:10A2D0005C1BBC4228BF3C46944228BF14464946FA
:10A2E0002844224601F0B4FEB3682544AB4208BFBF
:10A2F00000253F1BA044A144F560E1D14046BDE8E4
:10A30000F883000010B5114C114AA2610223C4E980
:10A310000433104BE361A2644FF400730E4A0F49FB
:10A320002362E26400231022E01DA3626362E36201
:10A33000A3656365E365226501F0E6FE08492046F2
:10A3400001F0E2FE2023A37110BD00BF343A0020CB
:10A3500086D10200BC3A0020AC3A00208FD1020026
:10A3600093D10200F8B5184C182300FB033503FB0A
:10A3700000402544C46A012C0F4616460FD0022C1B
:10A380001AD0F4B92846FFF769FF864205D832464D
:10A3900039462846FFF770FF34462046F8BD284668
:10A3A000FFF75CFF8642344628BF04462246394602
:10A3B0002846FFF761FFF0E72846BDE8F840FFF7C1
:10A3C00077BF0024E9E700BF343A0020FFF79ABFC7
:10A3D0006DDF704779DF70477DDF704764DF70475E
:10A3E0002DE9F04F85B000250E9CBDF83CB0B4F8C7
:10A3F00000A00191074690461E46A9463A884A4564
:10A400000DDC45B12388013BA3EB0A039BB2FF2B74
:10A410003AD806F80A30002005B0BDE8F08F7A6817
:10A4200052F82900039000220DF10B0103A8FFF759
:10A43000D5FF0028F0D19DF80B20424521D122887C
:10A44000002D14BF0020022002EB080101445945F1
:10A450001ADC3DB9013292B2019B2280B3542288AA
:10A460000132228022880DF10B01324403A8FFF74C
:10A47000B5FF0028D0D121889DF80B200A44228006
:10A48000012509F10109B9E70C20C5E72DE9F341E0
:10A49000089FBDF824801546CDE9007802220446C5
:10A4A0001E46FFF79DFF50B933461022294620462D
:10A4B000CDE9087802B0BDE8F041FFF791BF02B0E6
:10A4C000BDE8F0812DE9F04F00231788138090F844
:10A4D0002D3085B006460D46144653B3082F01D8DB
:10A4E0000C2027E102A8FFF773FF002840F022812B
:10A4F00023880822EA54238801339BB21B2223803D
:10A50000EA542088013080B2208006220DF1090132
:10A51000284401F09DFD23889DF8082006339BB256
:10A5200012F0FE0218BF01222380EA54238801336F
:10A530002380B378FBB123880433BB42D0D802A870
:10A54000FFF748FF002840F0F58023880322EA54F3
:10A55000238801339BB219222380EA542388BDF853
:10A56000082001339BB2E9182380EA54120A4A708A
:10A57000238802332380F2789AB12388D91CB94208
:10A58000AED80221E954238801339BB201212380F4
:10A59000E95423880B449BB22380EA5423880B445C
:10A5A00023807268AAB12388D91CB94298D80221A5
:10A5B00092F90020E954238801339BB20A212380B9
:10A5C000E954238801339BB22380EA542388013362
:10A5D00023803389002B40F0A180338A5BB1CDE921
:10A5E00000472B460722032106F11000FFF74EFF1C
:10A5F000002840F09F80338B5BB1CDE900472B46AC
:10A600001522142106F11800FFF740FF002840F042
:10A610009180326A002A40F09080D6F82480B8F108
:10A62000000F30D0B8F804302188981C8A1C0244EE
:10A63000BA423FF655AFFE283FF652AF03336B5494
:10A64000238801339BB2FF222380EA5423880133FD
:10A650009BB22380B8F80020EA54E918120A4A7025
:10A660002088023080B22080B8F804205AB1D8F88F
:10A67000081000296BD0284401F0EAFC2388B8F8C0
:10A6800004201344238096F82C30002B40F09A804D
:10A69000307800284ED03388012B58D0228802F120
:10A6A000020CBC453FF61CAF012805D1737802337C
:10A6B00013449F42FFF414AF023FBF1ABFB202A976
:10A6C00005EB0C00ADF80870FFF786FE90BB317803
:10A6D000BDF80830022900F0BA8072789A4202D39D
:10A6E000BB4240F2B280012940F0B380974293B25E
:10A6F000C0F0AF80ADF808300821BDF80830FE2B5F
:10A700003FF6EEAE22880133AB542288013292B27A
:10A710002280A9542288134423800BE0CDE900470E
:10A720002B460622022106F10800FFF7AFFE0028A3
:10A730003FF453AF05B0BDE8F08FB4F800C00CF1A2
:10A740000603BB423FF6CCAE1188052901D807208D
:10A75000F0E76FF4486E01EB0E039BB24FF27D3EC3
:10A760007345F4D95388052BF1D96FF44860181854
:10A7700080B27045EBD94FF6FF70814203D083421F
:10A7800001D09942E3D8052305F80C302388013322
:10A790009BB212212380E954238801339BB223808A
:10A7A0001188E954E818090A4170238802339BB2E2
:10A7B00023805288EA54E918120A4A702388023327
:10A7C00023802AE7B36A002BC1D04FF000094FF075
:10A7D0000C0A4FF0160B96F82C305FFA89F2934270
:10A7E0007FF656AFB16A0AFB02F201EB0208B8F835
:10A7F0000430981CFE283FF673AE208803332B5498
:10A80000238801339BB2238005F803B023880133EA
:10A810009BB223808A5AEA54E918120A4A702088A7
:10A82000023080B22080B8F804205AB1D8F808105D
:10A8300000298CD0284401F00BFC2388B8F80420B0
:10A840001344238009F10109C5E7092155E7BB42FB
:10A85000FBD9ADF808704FE730B5C8B1F2B10024AC
:10A86000651C8D4206DA1588A54212D805196D7847
:10A870009D420ED1A14211D9005D48B1013880B28C
:10A8800030B10234A3B210FA84F4A14206DB138083
:10A8900030BD055D01352C44A4B2E1E70020F7E7A7
:10A8A00013B513460022ADF806200DF1060204464A
:10A8B000FFF7D2FF10B1BDF80630E01802B010BDAE
:10A8C00072DF704773DF704774DF704738B501225D
:10A8D00004460D46B0F81414D0F81004FFF7E0FF5A
:10A8E00000B1057004F13C0204F5826104F15400EA
:10A8F000BDE83840FFF7E4BF80F830107047F8B586
:10A9000004460F46002975D0002873D091F87A309C
:10A910001BB191F89830002B6ED1D7F8A030042BE2
:10A920006AD0D7F89C30042B66D04FF0000C84F826
:10A9300002C007F178060FCE251D0FC50FCE0FC53B
:10A9400096E8070085E8070084F830C0D7F8A430FF
:10A950006363D7F8A830A3634FF6FF7504F58263ED
:10A96000C4F82034A4F824540722614604F2264097
:10A9700001F097FB23780BB984F8545094F82430F5
:10A98000002B14BFEE231F2304F15501C4F810144B
:10A99000A4F8143404F214423846FFF793FD40BB88
:10A9A00094F82430002B14BFEE231F2304F231212E
:10A9B000C4F81814A4F81C3404F21C4207F13C003B
:10A9C000FFF780FDA8B9A369A4F848304FF480735D
:10A9D0000125A4F8503063692064014684F83C5096
:10A9E000636404F13C0204F15400FFF769FF00B90D
:10A9F0002570F8BD0E20FCE70720FAE7F8B50778C8
:10AA000004460D46002F00F0038100F226468170B7
:10AA100007220021304601F044FBE38813B1A378FC
:10AA2000012B04D0E3794BB1A378022B06D1636BE1
:10AA3000A3B1012284F82D2408209847334604F25C
:10AA40002C4113F8012F12B99942FAD117466B1E07
:10AA5000032B51D8DFE803F0050B0F1284F82D34D7
:10AA6000ECE7A3791BB194F8243003B95FB9E3791B
:10AA70000BB1002F42D1237A002B41D1637A002BF6
:10AA80000CBF00250425636BA570002B3AD0033D55
:10AA9000012D37D86279AAB394F82E2492BB84F89A
:10AAA0003024012284F82F240720984704F13C0524
:10AAB00018220021284601F0F4FAE26A531E01210F
:10AAC000022B28BF0A4684F8512094F8242084F8E9
:10AAD0003C1032B1A36A581E022828BF0B4684F8E6
:10AAE0005230A178002384F8503004291BD8DFE8C5
:10AAF00001F0770D223559000025C4E70225C2E791
:10AB00000325C0E7002384F82F34CFE7C4E910639E
:10AB1000C4F820340223012284F83C30802384F8D6
:10AB20003120A4F84830A378002B5CD1636B002B54
:10AB30006AD1002067E00223002A84F8313014BF74
:10AB40000723032384F83C302369A4F8483000230A
:10AB5000C4F82034E36826646364E4E763696364EB
:10AB6000A369A4F8483012B1062384F83C30637915
:10AB7000B3B194F82E349BB994F8303483B10223E6
:10AB800084F8503004212046FFF7A0FE0028CAD1E7
:10AB9000052384F8313004F58263C4F82034C2E719
:10ABA0000323F6E7E3696364236AA4F8483012B12B
:10ABB000062384F83C30637983B194F82E346BB962
:10ABC00094F8303453B1022384F8503004212046E5
:10ABD000FFF77CFE0028A6D10623DAE70423D8E796
:10ABE00084F831309FE7D4F820142A4604F1540049
:10ABF000FFF766FE38B994F8301094F85400FFF768
:10AC000061FE002892D0F8BD94F83100984790E793
:10AC10000820F8E70388112B10B50C460AD0262B24
:10AC20001FD0102B05D1C37B012B02D18388A1F843
:10AC3000243410BD0022838881F82E24B1F8242406
:10AC40009A42F6D10B79002BF3D101212046FFF770
:10AC5000D5FE0028EDD0A36B002BEAD0BDE8104054
:10AC60001847037A013B012BE3D88978052301318A
:10AC7000B1FBF3F303EB8303C91AC9B2E6E738B5B6
:10AC8000044690F85400FFF71FFE012384F82E3489
:10AC9000002384F8303484F8503006212046FFF732
:10ACA00015FE054638B9A1782046FFF7A7FE10B17A
:10ACB000A36B03B19847284638BD75DF704776DF30
:10ACC00070477ADF70477BDF70470000034B1A88BC
:10ACD00082420CBF18460020704700BFD83C0020BD
:10ACE000024B9B6903B11847704700BFBC3C002072
:10ACF00073B585B22846FFF7E9FF044670B1164EDA
:10AD0000027A337B9A420BD200F10A012846FFF700
:10AD1000D4FFE8B1112801D0FFF7E2FF02B070BD07
:10AD200000230372337C43B13B212846FFF7C7FF62
:10AD300030F0080301D0FFF7D3FF7369002BEDD08B
:10AD400000228DF80420ADF8065001A89847E5E7E9
:10AD5000237A01332372E1E7BC3C002037B50B4670
:10AD6000497A0F4A71B9D2E901141D7A0246002DC1
:10AD700018BF21465868FCF788FA08B1FFF7B0FF02
:10AD800003B030BD002119725369002BF8D00122A5
:10AD9000ADF806008DF8042001A89847F0E700BF41
:10ADA000BC3C00204B8802889A4213D842889A42C1
:10ADB00010D380888A8840F2F313984294BF031A14
:10ADC000C31A934206D800F2F310904234BF002019
:10ADD00001207047002070470388122B70B5014690
:10ADE00059D004D8102B1ED0112B44D070BD502B3D
:10ADF000FCD12F4BC288DB899A42F7D1038A022B00
:10AE0000F4D186883046FFF761FF05460028EDD073
:10AE100001F1120000F079F938BB6868FCF74DFACF
:10AE20000028E3D009E0C37B012BDFD14FF6FF7090
:10AE3000FFF74CFF054620B90420BDE87040FFF73E
:10AE40004FBF1C4A8E880680002303721368C0F827
:10AE50000A305368C0F80E3010310A30FFF7A2FFF5
:10AE6000134B6872DB89002BC0D129463046BDE800
:10AE70007040FFF773BF8088FFF728FF0446002863
:10AE8000B4D04068FCF719FA08B1FFF729FF4FF674
:10AE9000FF732380AAE786883046FFF717FF054631
:10AEA0000028A3D008310A30FFF77CFF6872DCE786
:10AEB000BC3C0020EC3C0020F8B5064648B30546F3
:10AEC0000FCD154F3C460FC495E8070084E80700F6
:10AED0003068124C3C60B0B1FFF7F3FEC0B9326885
:10AEE00013682360536863600D480E4A4FF6FF7382
:10AEF00003800D4B40F8043F0021FCF7BBF900280C
:10AF000018BF032004E02046FFF7DDFE0028EBD049
:10AF1000F8BD0E20FCE700BFBC3C0020EC3C00204C
:10AF2000D83C0020F1AC0200F83C00200AB1FCF74C
:10AF300093BDFCF79ABD73B50191019C06466CB1B7
:10AF400000252C46294601A8FCF799FD18B106EB0F
:10AF5000440301349D800135142DF3D13046346013
:10AF600002B070BD2DE9F04703888488103B8CB097
:10AF700005460A2B1FD8DFE803F0063F1E1E1E1EE3
:10AF80001E1E1E604400314EB368DB43009371689F
:10AF90006846FCF7A0FD009901A8FFF7CCFF0DF172
:10AFA00008094FF00008019B984507D3132C13D9CB
:10AFB0000420FCF739F80CB0BDE8F08739F802AB93
:10AFC00000270137514606EB8700FCF74EFD1E2F88
:10AFD000F7D108F10108E6E71D482146FCF73CFDE2
:10AFE0001C482146FCF738FDEB7B022BE3D11A48C5
:10AFF0002146FCF731FDDEE715482146FCF735FD1B
:10B00000D9E7027A15483F2A4FEA1215214694BF24
:10B0100000220122FFF78AFF022D94BF00220122A5
:10B020000F482146FFF782FF012D0E4894BF0022F2
:10B0300001222146FFF77AFFBDE7037A002BBAD140
:10B04000427A0648C2F3C0022146F3E7183D0020C9
:10B05000203D00201C3D0020243D0020303D0020EC
:10B060002C3D0020283D00201328014602D802482C
:10B07000FCF705BD002070471C3D002010B50446BC
:10B08000FFF7F2FF002814BF2046142010BD70B552
:10B090000546164608460AB90E2070BD0023136007
:10B0A000002DF9D02B68002BF6D0EB8813F00304A9
:10B0B0000ED1FFF7E3FFC0B214280BD02B798342E7
:10B0C0000AD9EB882A6800FB032030602046E4E7B9
:10B0D0000720E2E70520E0E70420DEE7AADF70476B
:10B0E000002301380B70042806D8DFE800F00306BF
:10B0F000080A0C0011230B7070472123FBE7312352
:10B10000F9E71223F7E72223F5E7007800F00100C2
:10B110007047F0B58B7891B0012B0C4638BF0123F6
:10B120008DF80E3005460B88ADF80C300021164620
:10B130006846032200F0B5FF607C6946FFF7D0FF48
:10B14000A07C0DF10101FFF7CBFFE27B237B217D8A
:10B1500043EAC203227C43EA02139DF8022000293D
:10B1600022F0190203F0190314BF02210121134335
:10B1700061F342031C22002109A88DF8023000F07F
:10B1800090FF637B13F0300F15D002AF0322002134
:10B19000384600F086FFE07C0DF10901FFF7A0FFC3
:10B1A00011238DF808309DF80A300E97012262F3C2
:10B1B00042038DF80A30637B8DF824301422A37B80
:10B1C0008DF82530002104A800F06BFF03AB049339
:10B1D000A388ADF81C30A368CDF814D01BB1E28869
:10B1E000ADF818200893A369002B31D001AF0322DA
:10B1F0000021384600F055FFA3691A88ADF82C20CD
:10B200005A88ADF82E205A680D97187B0A92394655
:10B21000FFF766FFA3690DF10501587BFFF760FF9B
:10B22000A269917A137A43EAC103D17A927B43EA05
:10B2300001139DF80610002A03F0190321F01901EB
:10B2400014BF022201220B4362F342038DF8063041
:10B25000E36903B10C93334604AA09A92846FFF712
:10B260003DFF11B0F0BD90DF7047A5DF7047B5DF3F
:10B27000704700007FB51E4B1E4CE41AE4082404FE
:10B280000E4603460A4605461B4944F00400FBF7F8
:10B290009CFB00236A4602A92846ADF80860ADF879
:10B2A0000A6003930093ADF80430FFF7DCFF064615
:10B2B000D8B1FCF793FF44F0010403460F492A4636
:10B2C0002046FBF782FBBDF80020BDF8023052EAB1
:10B2D000030103D00A492046FBF777FBBDF80420A1
:10B2E0001AB108492046FBF767FB304604B070BD31
:10B2F00058C80200A8C802009AD10200C9D10200B1
:10B3000013D2020052D2020080B14FF0F713036053
:10B31000FB230371F723C3801723038141F6FB321C
:10B320000023016143818281184670470E207047D7
:10B3300030B1A1F11703E02B04D801800020704741
:10B340000E207047072070472DE9F047868886B0A9
:10B3500005460C4626BB0388242B00F0CD8022D85E
:10B36000112B00F09B80232B00F0FC80102B59D078
:10B37000A37AABB1E1880020FFF777FF03460028EE
:10B3800040F0038189488A4D8A492D1AED084FF40F
:10B3900080722D04628145F00400E288FBF715FB02
:10B3A00006B0BDE8F0873A2B00F08180552BDFD145
:10B3B0007E4B7F4DC7888049ED1AED082D0445F07E
:10B3C00004003B4632460390FBF7FFFAE3887B49D3
:10B3D0000398A672172F3A4638BF17229A4228BF01
:10B3E0001A4622810096FBF7FAFAE1883046FFF709
:10B3F0003EFF38B1FCF7F2FE7149024645F001000C
:10B40000FBF7DAFAE37A002BB2D12369002BAFD035
:10B4100040F6772204922289ADF8142004A9204630
:10B420009847A5E70B790B73C37B012B20D0022B28
:10B4300021D0E2882389934212D25C4B5C4D614952
:10B44000ED1AED082D0445F0040630460023FBF705
:10B45000BCFAE1880020FFF708FF70B90123E3720E
:10B46000217B637B8B4283D20020FFF703FF7FE7C2
:10B470000B88E380DDE74B88FBE7112807D1012328
:10B480005149A37200223046FBF796FAE8E7FCF731
:10B49000A5FE4E49024645F00100F5E7F723CB80B3
:10B4A00017230B8141F6FB334E818B8160E7428984
:10B4B000CB883F489A4228BF1A463C4BC01A172AED
:10B4C0004FEAD00038BF172200040A8133464049B2
:10B4D00040F00400FBF779FA236953B1E27A42B1F4
:10B4E00040F6772204922289ADF8142004A9204660
:10B4F0009847002363813BE7B0F80890B0F80AA0B2
:10B500008789B0F80E80027A284B29484A73C01AFE
:10B51000C0080004334640F004002E490390FBF7B6
:10B5200054FA2D4903985246FBF746FA2B490398E3
:10B530004A46FBF741FA2A4903984246FBF73CFA90
:10B54000284903983A46FBF737FA2369002B3FF462
:10B550000FAF4DF67A220492627B8DF815608DF85C
:10B5600014205BE7077A114B11481F49C01AC00825
:10B57000000440F004003B463246FBF726FA217BEC
:10B58000A888B94228BF39466FE711283FF408AFB1
:10B59000FCF724FE064B0D49024604481B1ADB0843
:10B5A0001B0443F00100FBF707FAF9E658C8020054
:10B5B000A8C80200FBD40200A3D30200DDD302001E
:10B5C0001CD40200A8D20200E5D2020037D3020048
:10B5D00068D302004BD402007AD402008CD402005B
:10B5E0009ED40200AED40200BED40200B0DF704789
:10B5F00066DF704710B5002104464088FFF7F8FF6A
:10B60000034608B9237210BD112801D10123F9E7BF
:10B610006368BDE81040184760B159B10378DE2B6C
:10B620000AD00B684360DE2303704FF6FF7343803C
:10B63000002070470E2070470820704728B103781B
:10B64000DE2B04D14180002070470E207047082077
:10B650007047F0B5054685B00C46F1B1E8B10B78FE
:10B66000DE2B1AD182884B889A4204D10B7A13B10F
:10B670000846FFF7BFFF2B88112B32D0512B0ED07D
:10B68000012B0AD12B7A012B07D1A988628891421C
:10B6900003D123722046FFF7ADFF05B0F0BDAE88A1
:10B6A0006388B342F9D1AF79022FF6D1AD7B2B1F5E
:10B6B000022BF2D800211022684600F0F2FC052D82
:10B6C00014BF4FF4C0730023694630468DF80070F4
:10B6D000ADF80430FFF78AFF0028DED06368984792
:10B6E000DBE76388AA889A4204BF4FF6FF73638042
:10B6F000D3E7A8DF7047ADDF7047AEDF704762DF8A
:10B70000704770B505468AB00C46002962D0002803
:10B7100060D00388502B37D0572B72D0102B59D1C3
:10B7200081886069002601AA0196FFF7B0FC082213
:10B7300031460DEB020000F0B4FC02232189A888F9
:10B74000CDF80CD002AA0293FFF7D5FF002841D113
:10B75000A369002B3ED00398FFF7D7FC002839D00F
:10B76000019B0BB101221A701822002104A800F0DD
:10B7700098FC02238DF81030AB88ADF81830019B8F
:10B7800005940793A36923E08188606902AAFFF703
:10B790007EFC1822002104A800F083FCAB882189DC
:10B7A000ADF81830EB88029A05949942079218D1A7
:10B7B0002E8A022E15D16AB105F11200FFF7A5FC01
:10B7C000029B48B101221A708DF81060A3690BB179
:10B7D00004A898470AB070BD187003238DF8103084
:10B7E000F4E7A2899A42F5D1A369002BF2D0002296
:10B7F0008DF8102005F1120208922A8AADF8242053
:10B80000E6E78188606902AAFFF741FC014600284B
:10B81000E0D1029B1B78002BDCD0A369002BD9D090
:10B82000182204A800F03DFC01238DF81030AB88ED
:10B83000ADF818300594029BA3E70000F0B53A4B31
:10B840008FB002AD04460A4603F1100C2F4618686B
:10B8500059682E4603C6083363453546F7D1002C98
:10B860005FD0002A5DD01368A36121463846FFF7F8
:10B8700046FF002853D12246012512F8023B8DF8DD
:10B88000063001A92846ADF80450FFF732FF002822
:10B8900045D10146202206A800F003FC22460223DF
:10B8A000ADF8183012F80C3B8DF81A30BDF8243082
:10B8B0001E4E6088079623F44F6323F00F0343F472
:10B8C00040632B4306A9ADF824308DF829508DF83C
:10B8D0002A50FFF71EFC10BB0146202206A800F0EC
:10B8E000E0FB22460323ADF8183012F8043B8DF834
:10B8F0001A30BDF824306088079623F4875323F06C
:10B900001F0343F480532B43ADF8243006A940F2C3
:10B9100001138DF82950ADF82A30FFF7FAFB0FB06C
:10B92000F0BD0E20FBE700BF55D50200F40001007A
:10B93000F0B50F4687B016461C46054618B3406959
:10B9400001AA1946FFF7A3FBD8B94FF6FF739C4233
:10B950001BD0019BCBB11B78CBB13388F42B18D80B
:10B960000146102202A800F09CFBAB88ADF808301D
:10B9700002A901232046CDE904678DF80A30FFF7BC
:10B98000BCFE07B0F0BD0E20FBE70520F9E708205C
:10B99000F7E70720F5E710DF7047000013B504460E
:10B9A00009496846FCF7BFFB019808B902B010BD11
:10B9B000D0E900212046904718B16846FCF7BDFB4E
:10B9C000F2E71120F2E700BF74D5020013B5044678
:10B9D00007496846FCF7A7FB019B0BB902B010BDF5
:10B9E0002046D3E9002190476846FCF7A6FBF3E721
:10B9F0008CD502000B4991F816335A09EC231341F8
:10BA0000DB0706D5084B9A683AB94FF480030B6000
:10BA1000704742F20200FBF707BB1A6842F480024B
:10BA20001A60704700E100E040320020F7B5194F7E
:10BA30003C7864BB184E012520463570FFF7AEFFF9
:10BA4000112821D02046FFF7C1FF144B8DF8034089
:10BA5000186801900DF10300FBF7FEFD104901A8E5
:10BA6000FFF799FF0446B0FA80F0400938709DF85E
:10BA70000300FBF715FE3CB90A4B34701C70FFF74E
:10BA8000B9FF2846FFF7A2FF204603B0F0BD082407
:10BA9000FAE700BF953D0020943D00206DD50200DF
:10BAA00045700200963D0020014B1878704700BF9A
:10BAB000953D002007B508496846FCF734FB019B1B
:10BAC00013B903B05DF804FBD3E900209047684642
:10BAD000FCF733FBF3E700BF80D50200FFF7EABFB6
